:100000000C943C010C94D9080C94AE080C94830811
:100010000C9458080C942D080C9402080C94D707E3
:100020000C94AC070C945B010C9404090C945B01D8
:100030000C945B010C945B010C945B010C945B01D0
:100040000C9462070C945B010C945B010C945B01B3
:100050000C945B010C945B010C945B010C945B01B0
:100060000C945B010C945B010C945B010C945B01A0
:100070000C945B010C945B010C945B010C945B0190
:100080000C945B010C945B010C945B014603000033
:10009000000000130D0000000000000101C08000FE
:1000A000000000000000000000060000000000004A
:1000B0000000000000000000000000000000000040
:1000C000000000000000FF1F001E000000000000F4
:1000D0000000000000000000000000000000000020
:1000E0000000000000000000000000000000000010
:1000F00000000000000000000000000002001400EA
:10010000030014000400140005001400060014008D
:100110000700140008001400090014000A00080079
:100120000B0008000C0008000D0008000E0008007D
:100130000F00080010000800110008001200140051
:100140001300140001001400010014000100140049
:100150000100140000801F0000811F00FF0000004C
:10016000FF000000FF000000FF000000FF00000093
:10017000FF000000FF000000FF000000FF00000083
:10018000FF000000FF000000FF000000FF00000073
:10019000FF000000FF000000FF0000000000000062
:1001A000000000000000000000000000000000004F
:1001B00000000000000000000000003A003700349A
:1001C00000310022006100640000003B003800356F
:1001D00000320023006200650005050505050505E0
:1001E00005020202020202020207070404040404D8
:1001F00004040407070303030303030303070101C4
:1002000001010101010106060606060606060102B5
:1002100004081020408001020408102040800810CB
:10022000010204081020408001020102040810208D
:1002300040800480402010080402010102040810DC
:100240002040800000000A0B0C00000000000001AC
:10025000040506000000000000000000000000008F
:10026000000000000000000000000000000000008E
:10027000000000000000000011241FBECFEFD0E1FD
:10028000DEBFCDBF11E0A0E0B1E0EEEAF4E100E0B6
:100290000BBF02C007900D92A037B107D9F721E03C
:1002A000A0E7B1E001C01D92AE3AB207E1F70E94AB
:1002B00051090C94550A0C940000E82FF0E0EC561C
:1002C000FE4F8085861739F06087618B809196019B
:1002D0008360809396010895262F30E090919A01D3
:1002E0009078691729F0909196019C6090939601FF
:1002F0003695322F222737952795822B80939A01A6
:1003000080939B010895089580E090E0892B29F067
:100310008091930183FD0C9400000895009731F1C2
:1003200060919701709198018617970709F06DC049
:1003300041504A30D8F4E42FF0E0EF55FE4F0C94D2
:100340004C0AAB01B701C201D201D901E001E701BA
:10035000EE01F501FD0180919C01281739F02093F1
:100360009C018091960181608093960108959091FF
:100370009D0180EF820F292B28239217B9F3209338
:100380009D01EFCF30919D0140E1249FC0011124D8
:10039000832B2295207F215F8223381739F38093A6
:1003A0009D01DFCF80919E01281701F320939E01CC
:1003B000D8CF80919F012817C9F220939F01D1CFF8
:1003C0008091A001281791F22093A001CACF8091BB
:1003D000A101281759F22093A101C3CF8091A20156
:1003E000281721F22093A201BCCF8091A3012817E6
:1003F00009F4BCCF2093A301B4CF8091A4012817A6
:1004000009F4B4CF2093A401ACCF309199013F7788
:100410003817190609F0AACF4230A1F018F441307C
:1004200031F008954330D1F0443049F1089580917E
:10043000A501281709F49ACF2093A5018091960170
:10044000826092CF9091A60180EF820F292B282302
:10045000921709F48BCF2093A601F0CF3091A6011B
:1004600040E1249FC0011124832B2295207F215F2E
:100470008223381709F47ACF8093A601DFCF8091C9
:10048000A701281709F472CF2093A701D7CF0F93A4
:10049000009721F160919701709198018617970755
:1004A00029F5822F90E030919A013078231729F0B6
:1004B000209196012460209396010D3189F00F3729
:1004C00079F00F3081F49C013695322F2227379531
:1004D000279580919A01822B80939A010F9108951C
:1004E00040939A01F0CF10929A01EDCF309199018B
:1004F0003F773817190691F7822F90E030919B01D2
:100500003078231729F020919601286020939601D6
:100510009695982F882797958795482B40939B0110
:10052000DDCF8150883108F045C0E82FF0E0E55676
:10053000FD4F0C944C0AB302B502B702B902BB02DC
:10054000BD02BF02C102C302C902CD02D102D5025F
:10055000DB02DF02E102E302E502E902ED02EF0263
:10056000F102F302F502C3980895C2980895C09865
:1005700008951F98089597980895969808959598C6
:10058000089594980895809162008B7F8093620013
:100590000895809162008D7FF9CF809162008E7FF7
:1005A000F5CF809162008F7EF1CF809165008E7FC4
:1005B000809365000895809165008D7FF9CFA8989C
:1005C0000895A9980895C598089580916500877F3A
:1005D000EFCF809162008F7BD9CFDA980895DB98B6
:1005E0000895AB980895C4980895809165008F7E12
:1005F000DFCF1F93CF93DF93EC018A819B8110E0C3
:10060000892BE9F48D819E8110E0892B69F5888121
:100610008E7F8883DF91CF911F910895812F90E085
:10062000880F991FEA81FB81E80FF91F0190F08183
:10063000E02D80818F7780830E9491021F5F8981E6
:10064000181760F3DFCF812F90E0880F991FED819D
:10065000FE81E80FF91F0190F081E02D80818F77F6
:1006600080830E9491021F5F8C81181760F3CFCFA7
:10067000FC0190819570953019F4CF010C94F9022A
:100680000895FC01208120FF03C022FF0C94F90291
:1006900008958150883108F045C0E82FF0E0ED5A08
:1006A000FC4F0C944C0A6B036D036F0371037303CF
:1006B0007503770379037B038103850389038D0326
:1006C0009303970399039B039D03A103A503A7032A
:1006D000A903AB03AD03C39A0895C29A0895C09AC3
:1006E00008951F9A0895979A0895969A0895959A4D
:1006F0000895949A089580916200846080936200C6
:100700000895809162008260F9CF809162008160DB
:10071000F5CF809162008061F1CF809165008160AA
:10072000809365000895809165008260F9CFA89A52
:100730000895A99A0895C59A0895809165008860E2
:10074000EFCF809162008064D9CFDA9A0895DB9A66
:100750000895AB9A0895C49A0895809165008061C8
:10076000DFCF90919601882361F09061909396017C
:1007700081E00E94490380918A00887F80938A00EB
:1007800008959F7E9093960181E00E9491021092BD
:1007900088001092890080918A008460EFCFCF9307
:1007A000C82F80917C018C1719F08C2F0E94B10307
:1007B000C0937C01CC23F9F02FB7F8948091760197
:1007C00090917701A0917801B09179012FBF482FC6
:1007D000392F2A2F8B2F40937D0130937E01209358
:1007E0007F018093800180917C018C1749F08C2FD0
:1007F000CF910C94B10340E030E020E080E0EBCFFB
:10080000CF9108950F931F93CF938C01C0E0F8010F
:100810008181C81720F0CF911F910F9108958C2FDF
:1008200090E0880F991FD8011296ED91FC91E80F86
:10083000F91F0190F081E02D8081982F90689083BE
:100840008F770E944903CF5FE2CF1F93CF93DF934F
:10085000EC01288120FD15C022FF13C0322F31602A
:10086000388321FF09C02A813B81232B51F0DF917E
:10087000CF911F910C9402042D813E8110E0232B17
:10088000B9F4DF91CF911F910895812F90E0880FE7
:10089000991FED81FE81E80FF91F0190F081E02D95
:1008A0008081982F906890838F770E9449031F5F03
:1008B0008C81181750F3E5CFCF93DF93EC0188813B
:1008C000982F9270691789F0662369F08260888397
:1008D000888180FF0AC0CE010E943803CE01DF91DB
:1008E000CF910C9425048D7FF2CFDF91CF910895A5
:1008F0001F93CF93DF93EC012881322F357099F449
:10090000322F3160388321FF09C02A813B81232B9C
:1009100051F0DF91CF911F910C9402042D813E8103
:1009200010E0232BB9F4DF91CF911F910895812F0F
:1009300090E0880F991FED81FE81E80FF91F01906B
:10094000F081E02D8081982F906890838F770E94AE
:1009500049031F5F8C81181750F3E5CFCF93DF93C6
:10096000EC018881982F9270691789F0662369F0ED
:1009700082608883888180FF0AC0CE010E94410383
:10098000CE01DF91CF910C9478048D7FF2CFDF916F
:10099000CF910895AA9A8FE79EE30197F1F700C0DF
:1009A0000000AA9808950C94CA040E94CF03EAE7B5
:1009B000F1E081E087831086E3E8F1E088E0DF0181
:1009C0001D928A95E9F708951F93CF93DF93EC0169
:1009D0008091960184FF0BC08FE090E00E94330A63
:1009E000182F80E190E00E94330A181306C0CE0150
:1009F000DF91CF911F910C94330AFFCF0C94E40444
:100A0000CF93DF9320919001309191012F3F3207D6
:100A100021F0C901DF91CF9108958091930187FF63
:100A20002BC086FF0FC089E090E00E94FE04C82F13
:100A300081E090E00E94FE049C2F909391018093AE
:100A4000900115C089E090E00E94FE04C82F81E06B
:100A500090E00E94FE0490E4C99F90011124207C44
:100A600031708F73282B30939101209390018091E6
:100A7000900190919101CECF85FF0CC081E190E073
:100A80000E94FE04C82F82E190E00E94FE04C05C38
:100A9000DD0BD2CF81E090E00E94FE0490E0CDCF4C
:100AA000CF93DF93D0E0C0E0FE01E457FF4F6491A5
:100AB000CE010E943B0A2196CD3281E0D807A1F7F2
:100AC00061E081E893E00E943B0AC0E0CF5F8C2F99
:100AD0000E944903C831D1F7DF91CF9108950C945A
:100AE00050051F93CF93DF93EC01162F089779F4ED
:100AF000662319F10E94500580E090E0892BB9F03F
:100B0000612FCE01DF91CF911F910C94000080E006
:100B100090E0892BA9F781E0C11590E1D90708F091
:100B200080E0111105C0DF91CF911F91089581E000
:100B300027972297C0F780E0F6CF80E090E0892BDE
:100B4000F9F681E0F0CF0F931F93CF93DF93EC0181
:100B5000162F8091960184FF25C0CF30D10561F416
:100B60008FE090E00E943B0A8FE090E0DF91CF9110
:100B70001F910F910C94330A8FE090E00E94330A8A
:100B8000082F80E190E00E94330A08130AC0C730A2
:100B9000D10531F0C830D10529F4183049F0FFCF24
:100BA000FFCFFFCF612FCE010E943B0ACE01DECFE7
:100BB0000E94500588E0DF91CF911F910F91089519
:100BC0008331910588F48131910530F481309105AC
:100BD00019F08930910531F42FEF3FEF30939101F7
:100BE000209390010C94A3058D319105D9F7677F6F
:100BF0006093930120917A012F73362F307C232B41
:100C000020937A01E9CFBF92CF92DF92EF92FF92C9
:100C10000F931F93CF93DF938B01B42E690182FF53
:100C200023C083FF17C061E0C8010E9471058823BB
:100C3000D9F16B2DC8010E94E0058B1135C0F6017A
:100C4000DF91CF911F910F91FF90EF90DF90CF90A8
:100C5000BF90099460E0C8010E947105882321F1CA
:100C6000C8010E94FE04E9CF842F8770C1E0D0E064
:100C70007E0101C0EE0C8A95EAF7D42FD870CB0123
:100C80000E94FE04C82FB4FE1CC061E0C8010E948F
:100C90007105882349F0DD2389F0CE296C2FC80126
:100CA0000E94E0058C1759F2DF91CF911F910F91AF
:100CB000FF90EF90DF90CF90BF900895E094CE2109
:100CC000EDCF60E0C8010E947105882369F3CE2151
:100CD000DD2319F0C111B3CFE7CFCC2309F4AFCF97
:100CE000E3CFAF92BF92DF92EF92FF920F931F93E9
:100CF000CF93DF937C01162FC42FD22ED42FD07E1A
:100D000080917A0187FF2CC0D03EC1F5A0907B0175
:100D1000AA20A1F1B12CC5010E94FE04D82FC50163
:100D200001960E94FE04982F8D2FE816F90631F5E2
:100D30006C2F70E0762F6627662773706D296F5FC2
:100D40007F4F24E831E0402F8C2FDF91CF911F910E
:100D50000F91FF90EF90DF90BF90AF900C9403063F
:100D600080FD33C0D03609F464C090F4D03209F469
:100D700049C0D03409F45DC0DD2381F1DF91CF910A
:100D80001F910F91FF90EF90DF90BF90AF9008956B
:100D9000D03A09F484C090F42C2F2F7141E0D03860
:100DA00069F7612FC701DF91CF911F910F91FF90DC
:100DB000EF90DF90BF90AF900C948E01D03C09F47F
:100DC00075C0D03E09F4B4CFD9CF0E9400058E156E
:100DD0009F0541F2E114F10429F2D0CF8C2F8E70DF
:100DE00069F680E090E0892B49F28C2F8170DF91C9
:100DF000CF911F910F91FF90EF90DF90BF90AF9038
:100E00000C940000CF71CF3109F0B8CF4D2D4F7742
:100E100061F0413061F02D2D221F2227221F0DE1AC
:100E2000612FC7010E944702A9CF41E0F4CF40E003
:100E3000F2CF2C2F30E08C2F8F71813029F030F0E1
:100E4000803121F0813109F540E001C041E095E0B9
:100E5000359527959A95E1F721700DE1612FC7012E
:100E60000E94470280E090E0892B09F487CF4C2F45
:100E7000612FC701DF91CF911F910F91FF90EF90EC
:100E8000DF90BF90AF900C940000C901880F991FAC
:100E90008E71C4FB442740F9482B4250D8CF2C2FE9
:100EA0002F7043E0C4FF7DCF42E07BCFCF71CE31C6
:100EB00031F0CF3109F062CF2D2D45E072CF2D2DCD
:100EC00044E06FCF1F920F920FB60F9211242F9311
:100ED0003F938F939F93AF93BF93809176019091AF
:100EE0007701A0917801B09179013091750123E0EB
:100EF000230F2D3768F126E8230F0296A11DB11D9F
:100F0000209375018093760190937701A0937801E7
:100F1000B09379018091710190917201A091730158
:100F2000B09174010196A11DB11D80937101909340
:100F30007201A0937301B0937401BF91AF919F911F
:100F40008F913F912F910F900FBE0F901F9018958A
:100F50000196A11DB11DD4CF1F920F920FB60F9213
:100F600011240BB60F922F933F934F935F936F9380
:100F70007F938F939F93AF93BF93EF93FF93E091F2
:100F80003E01F0913F010995FF91EF91BF91AF9123
:100F90009F918F917F916F915F914F913F912F9191
:100FA0000F900BBE0F900FBE0F901F9018951F92C1
:100FB0000F920FB60F9211240BB60F922F933F93FF
:100FC0004F935F936F937F938F939F93AF93BF9351
:100FD000EF93FF93E0913C01F0913D010995FF9162
:100FE000EF91BF91AF919F918F917F916F915F91A1
:100FF0004F913F912F910F900BBE0F900FBE0F900E
:101000001F9018951F920F920FB60F9211240BB6D6
:101010000F922F933F934F935F936F937F938F9391
:101020009F93AF93BF93EF93FF93E0913A01F091B9
:101030003B010995FF91EF91BF91AF919F918F91E6
:101040007F916F915F914F913F912F910F900BBEC8
:101050000F900FBE0F901F9018951F920F920FB612
:101060000F9211240BB60F922F933F934F935F93E0
:101070006F937F938F939F93AF93BF93EF93FF9360
:10108000E0913801F09139010995FF91EF91BF91FD
:10109000AF919F918F917F916F915F914F913F9110
:1010A0002F910F900BBE0F900FBE0F901F901895B1
:1010B0001F920F920FB60F9211240BB60F922F931F
:1010C0003F934F935F936F937F938F939F93AF93D0
:1010D000BF93EF93FF93E0913601F09137010995AB
:1010E000FF91EF91BF91AF919F918F917F916F9100
:1010F0005F914F913F912F910F900BBE0F900FBEBC
:101100000F901F9018951F920F920FB60F921124F7
:101110000BB60F922F933F934F935F936F937F93F1
:101120008F939F93AF93BF93EF93FF93E09134011D
:10113000F09135010995FF91EF91BF91AF919F918A
:101140008F917F916F915F914F913F912F910F9070
:101150000BBE0F900FBE0F901F9018951F920F920D
:101160000FB60F9211240BB60F922F933F934F930C
:101170005F936F937F938F939F93AF93BF93EF93FF
:10118000FF93E0913201F09133010995FF91EF91C6
:10119000BF91AF919F918F917F916F915F914F918F
:1011A0003F912F910F900BBE0F900FBE0F901F908D
:1011B00018951F920F920FB60F9211240BB60F9233
:1011C0002F933F934F935F936F937F938F939F934F
:1011D000AF93BF93EF93FF93E0913001F091310112
:1011E0000995FF91EF91BF91AF919F918F917F9161
:1011F0006F915F914F913F912F910F900BBE0F9088
:101200000FBE0F901F9018951F920F920FB60F925E
:1012100011240BB60F922F933F934F935F936F93CD
:101220007F938F939F93AF93BF93CF93DF93EF936E
:10123000FF937894C0E4D1E0E991F991808187FF30
:1012400008C08F77209170019181921720F10E9440
:10125000490381E0C037D80779F786E984BD8091DA
:1012600070018F5F8032D1F080937001FF91EF9118
:10127000DF91CF91BF91AF919F918F917F916F91AE
:101280005F914F913F912F910F900BBE0F900FBE2A
:101290000F901F9018950E949102DBCF1092700161
:1012A000E5CF789483B78C6483BF87B7816087BFAD
:1012B00082E08EBD8EB581608EBD8FB581608FBDA1
:1012C00085B5846085BD85B5806485BD80918A00C3
:1012D000836080938A0080918B00816080938B0073
:1012E00087E886B91AB80FB6F894A89581B58861D1
:1012F00081BD11BC0FBE1ABA17BA14BA11BA12B80E
:1013000010926100109264004FE052E0FA01649183
:101310008AED91E0FC012491222399F030E0220F24
:10132000331FF901E754FE4FA591B491F901E7533A
:10133000FE4F259134912FB7F8943C91632B6C9319
:101340002FBFE4E4F2E02491FA014491FC0184917E
:10135000882341F12223C1F021502C30A8F4E22F40
:10136000F0E0EB54F64F0C944C0A2F0A2F0AC409F4
:10137000C109170A1A0A1D0AC409C409210A270A41
:101380002B0A9FB59F779FBDE82FF0E0EE0FFF1F60
:10139000E753FE4FA591B4918FB7F8949C91492BD8
:1013A0004C938FBFA29ABB9ABA9AB89A179A8F9AFF
:1013B0008E9A8D9A8C9A80916100846080936100EE
:1013C0008091610082608093610080916100816002
:1013D00080936100809161008061809361008091C1
:1013E00064008160809364008091640082608093D7
:1013F0006400A09AA19ABD9A80916400886080934D
:10140000640080916100806480936100D29AD39AD5
:10141000A39ABC9A80916400806180936400C0E0CC
:10142000CF5F8C2F0E944903C831D1F7FFCF9FB502
:101430009F7DA9CF9FB5977FA6CF95B59F7D95BD81
:10144000A3CF90918B009F7790938B009DCF90912D
:101450008B009F7DF9CF90918B00977FF5CF93B74D
:101460009F7D93BF91CFE199FECF9FBB8EBBE09A4A
:1014700099278DB30895262FE199FECF9FBB8EBB90
:10148000E09A01970DB2021631F02DBB0FB6F89419
:10149000E29AE19A0FBE0895EE0FFF1F0024001C90
:0E14A0000BBE0790F691E02D0994F894FFCF53
:1014AE0018FF17FF16FF15FF14FF13FF12FF11FF92
:1014BE0010FF0FFF0EFF0DFF0CFF0BFF0AFF09FFC2
:1014CE0008FF07FF06FF05FF04FF03FF02FF01FFF2
:1014DE00830100000000000000000000000000007A
:1014EE002E012C012A0128012601240122012001AE
:1014FE001E011C011A01180116011401120110011E
:10150E000E010C010A01080106010401020100018D
:00000001FF
