:100000000C946D010C9490110C9465110C943A11A0
:100010000C940F110C94E4100C94B9100C948E10E5
:100020000C9463100C9497010C9486130C94970114
:100030000C9497010C9497010C9497010C949701E0
:100040000C9419100C9497010C9497010C9497013F
:100050000C9497010C9497010C9497010C949701C0
:100060000C9497010C9497010C9497010C949701B0
:100070000C9497010C94EB120C9497010C9497013B
:100080000C9497010C94BB110C9497014003000051
:10009000000000120D0000000000000101C08000FF
:1000A000000000000000000000060000000000004A
:1000B0000000000000000000000000000000000040
:1000C000000000000000FF1F001E000000000000F4
:1000D0000000000000000000000000000000000020
:1000E0000000000000000000000000000000000010
:1000F00000000000000000000000000002001400EA
:10010000030014000400140005001400060014008D
:100110000700140008001400090014000A00100071
:100120000B0010000C0010000D0010000E0010005D
:100130000F00100010001000110010001200140039
:100140001300140001001400010014000100140049
:100150000100140000801F0000811F00FF0000004C
:10016000FF000000FF000000FF000000FF00000093
:10017000FF000000FF000000FF000000FF00000083
:10018000FF000000FF000000FF000000FF00000073
:10019000FF000000FF000000FF0000000000000062
:1001A000000000000000000000000000000000004F
:1001B0000000000000000000007000740078007C67
:1001C000008000840088008C009000940098009CBF
:1001D00000A000A400A800AC00B000B400B800BCAF
:1001E00000C000C400C800CC00D000D400D800DC9F
:1001F00000E000E400E800EC00F000F400F800FC8F
:10020000000001040108010C0100003A003700342D
:100210000031002200610064000000390036003324
:1002200000300021002000630000003B0038003552
:10023000003200230062006500050505050505057F
:100240000502020202020202020707040404040477
:100250000404040707030303030303030307010163
:100260000101010101010606060606060606010255
:10027000040810204080010204081020408008106B
:10028000010204081020408001020102040810202D
:10029000408004804020100804020101020408107C
:1002A0002040800000000A0B0C000000000000014C
:1002B000040506000000000000000000000000002F
:1002C000000000000000000000000000000000002E
:1002D0000000000000000000D31311241FBECFEF68
:1002E000D0E1DEBFCDBF11E0A0E0B1E0E8EBFEE27F
:1002F00000E00BBF02C007900D92AA38B107D9F7F2
:1003000024E0AAE8B1E001C01D92A53BB207E1F7E5
:1003100011E0CDE6D1E004C02197FE010E9409164C
:10032000CC36D107C9F70E94E4130C945A170C94E9
:1003300000009091A40481E0913208F043C08091C4
:1003400080048111FCCF8091A30422E020938004DB
:1003500021E020937F042FEF20937E0423E834E0F4
:1003600030937D0420937C0410927B0490937A0454
:100370001092790490917904880F892B80937904E5
:1003800080917804813029F5109278048091790465
:10039000809373008091740083FDF8CF85EC809387
:1003A0007400809180048230E1F380917E048F3F5D
:1003B00091F080917E04803281F080917E048033C0
:1003C00071F084E0109282041092A40410928104CF
:1003D000089585EEE4CF80E0F5CF82E0F3CF83E0AF
:1003E000F1CF90E0FC01ED55FD4F2491FC01E25965
:1003F000FD4F3491875C9D4FFC018491882341F12E
:100400002223C1F021502C30A8F4E22FF0E0E55F68
:10041000FD4F0C940916410241021A0217022902EB
:100420002C022F021A021A02330239023D029FB532
:100430009F779FBDE82FF0E0EE0FFF1FE75DFD4FB8
:10044000A591B4918FB7F894EC913E2B3C938FBF5C
:1004500008959FB59F7DEDCF9FB5977FEACF95B566
:100460009F7D95BDE7CF90918B009F7790938B00F8
:10047000E1CF90918B009F7DF9CF90918B00977F7A
:10048000F5CF93B79F7D93BFD5CFE82FF0E0E25A29
:10049000FB4F8085861739F06087618B80916004FF
:1004A0008360809360040895262F30E09091640467
:1004B0009078691729F0909160049C609093600493
:1004C0003695322F222737952795822B8093640407
:1004D000809365040895E0913B02F0913C023097CF
:1004E00029F0109282041092A40409940895CF93E5
:1004F000DF93AC01E0913902F0913A023097F1F0CC
:1005000090913802809137029817C0F090E0292F1F
:1005100030E02617370754F4D901A756BE4F240FF1
:10052000351FE90128812C939F5FF1CF109238028B
:1005300060933702CB01DF91CF910994DF91CF9186
:100540000895CF93DF9390E0FC01E259FD4F249191
:10055000875C9D4FFC0184918823C9F090E0880F4F
:10056000991FFC01E75FFD4FA591B491FC01E75D88
:10057000FD4FC591D49161110DC09FB7F8948C9136
:10058000209582238C938881282328839FBFDF9125
:10059000CF910895623051F49FB7F8943C91822F27
:1005A000809583238C93E8812E2BEFCF8FB7F8941F
:1005B000EC912E2B2C938FBFEACF3FB7F89480910C
:1005C0002F0290913002A0913102B091320222B7F5
:1005D00006B600FE05C02F3F19F00196A11DB11D02
:1005E0003FBFBA2FA92F982F8827BC01CD01620FDA
:1005F000711D811D911D42E0660F771F881F991F95
:100600004A95D1F70895883008F5E82FF0E0EE0F0D
:10061000FF1FEF5CFE4F718360838150873068F469
:10062000E82FF0E0EA5EFC4F0C9409162703340330
:1006300042035003570362036E0380916A008C7F6C
:10064000482B40936A0089B7816089BF08958091E3
:100650006A00837F440F551F440F551F482B40935A
:100660006A0089B78260F1CF80916A008F7C74E064
:10067000440F551F7A95E1F7482B40936A0089B7DC
:100680008460E3CF80916A008F7366E0440F551F4A
:100690006A95E1F7482B40936A0089B78860D5CF07
:1006A0008AB78C7F482B4ABF89B78061CECF8AB783
:1006B000837F440F551F440F551F482B4ABF89B7EE
:1006C0008062C3CF8AB78F7C24E0440F551F2A95E0
:1006D000E1F7482B4ABF89B78064B7CF8AB78F73D9
:1006E00096E0440F551F9A95E1F7482B4ABF89B70A
:1006F0008068ABCFFF920F931F93CF93DF930E943D
:10070000DD022091970130919801EB01C21BD30BC0
:100710002091410230914202C217D30708F461C010
:1007200040914B0250914C024130510561F0E091F3
:100730007402F0917502208130917602232330916A
:100740003F0223134EC0709398016093970100916C
:100750004302109144024230510509F419C143305B
:10076000510509F454C14130510561F4809196015D
:10077000813009F449C0D8F1833009F486C084304F
:1007800009F4CFC080914B0290914C02019749F13E
:10079000C017D10708F073C1809194018F5F8093D7
:1007A00094018B30F0F081E090E090934C028093C4
:1007B0004B0241E050E06AE773E0809172020E94D0
:1007C000030310923F021092960182E590E090930D
:1007D00044028093430283E290E09093420280932C
:1007E0004102DF91CF911F910F91FF900895C017A3
:1007F000D10730F481E080939601C0939501C2CF78
:1008000084E080939601BECFC017D107E0F5109227
:100810009601809194018F5F8093940120919501BE
:100820008C2F0C2E000C990B821B910927FD9395A0
:1008300097FF03C0919581959109499794F2109281
:100840004C0210924B0282E990E090934402809314
:10085000430282E590E0909342028093410210921D
:100860009401F09040024F2D50E06AE773E08091D0
:1008700072020E9403038091760293E0F91229C06C
:1008800080933F027FCF83E0BCCFC017D10718F51C
:1008900010924C0210924B0282E990E09093440235
:1008A0008093430282E590E090934202809341025C
:1008B00010929401F09040024F2D50E06AE773E0EF
:1008C000809172020E9403038091760233E0F31656
:1008D000B9F280E0D5CF90914002933009F482E0E4
:1008E0008093400282E090E090934C0280934B0210
:1008F00082E990E0909344028093430282E590E085
:10090000909342028093410210925102809194018F
:100910008093520210924E021092500210924F0297
:10092000C9CFC017D107A8F410924C0210924B0205
:1009300082E990E0909344028093430282E590E044
:1009400090934202809341021092940110924E02C1
:1009500088CF82E090E090934C0280934B0282E932
:1009600090E0909344028093430282E590E090935C
:10097000420280934102109251028091940180932F
:10098000520210924E021092500210924F0269CF02
:1009900090914E029F5F90934E0280914F02880F7C
:1009A000C017D107E0F080934F02983009F0F0CEE5
:1009B000E0915102E630A9F410924C0210924B02E1
:1009C00082E990E0909344028093430282E590E0B4
:1009D000909342028093410210924E02D3CE8160E6
:1009E000E2CF83E090E090934C0280934B02909191
:1009F0004F0281E08E0F80935102F0E0E55BFD4FE6
:100A0000908780915002892780935002BBCEC017F7
:100A1000D10728F510924C0210924B0210924E0210
:100A200082E990E0909344028093430282E590E053
:100A30009093420280934102809150028111ACCE8A
:100A400088E0E1E5F2E0A9E5B2E001900D928A9537
:100A5000E1F781E080934D021092940193CE809152
:100A60005102863009F4A8CF82E090E090934C02C6
:100A700080934B0210924E0210924F0283CE10923E
:100A80009401AFCE0895DC011496ED91FC91159779
:100A9000908111968C918095892380830895CF93BE
:100AA000DF93DC01EC91F0E0EE0FFF1FE75EFD4FFE
:100AB000C591D491988111968C91982381E009F485
:100AC00080E0DF91CF910895DC011296ED91FC91C9
:100AD000139711969C911197808161110EC090958A
:100AE000982390831496ED91FC911597908111961F
:100AF0008C918095892380830895982B9083089505
:100B00008091370290913802891B990B089585EDE9
:100B1000809374008091740084FDFCCF1092800457
:100B200008952091D901260F3327331F2132310533
:100B3000ECF420918004FC0190E080E0243069F026
:100B400082E00895A091D9012191AC0147545E4FF4
:100B5000A40FB52FB11D2C930196861798F38091A1
:100B6000D901680F6093D90180E0089581E008956C
:100B70000895E091380280913702E81730F4F0E0F0
:100B8000E756FE4F808190E008958FEF9FEF089524
:100B900090913802809137022FEF3FEF981748F479
:100BA000E92FF0E0E756FE4F208130E09F5F909301
:100BB0003802C9010895CF92DF92EF92FF920F930E
:100BC0001F93CF93DF937C01CB018A012091810495
:100BD000222389F0EB016B01C40ED51ECC15DD0577
:100BE00069F06991D701ED91FC910190F081E02DC0
:100BF000C7010995F3CF642F0E949105C801DF91C9
:100C0000CF911F910F91FF90EF90DF90CF900895BB
:100C1000CF93DF931F92CDB7DEB769832091810414
:100C20002223F9F02091A404203258F021E030E092
:100C3000FC013383228390E080E00F90DF91CF911D
:100C4000089580918204E82FF0E0ED57FB4F9981E1
:100C500090838F5F809382048093A40481E090E06E
:100C6000ECCF61E0CE0101960E949105F7CF1F9372
:100C7000CF93DF93C0E1D2E01881698185EA94E0E7
:100C80000E940806612F85EA94E00E9408066A81A6
:100C900085EA94E0DF91CF911F910C94080690E0D3
:100CA00080E0089580E090E0892B29F080917A021D
:100CB00083FD0C9400000895009731F16091610468
:100CC000709162048617970709F06DC041504A3051
:100CD000D8F4E42FF0E0E159F94F0C9409167906A5
:100CE00085069006A006A706AE06B506BC06C30696
:100CF000CB0680916604281739F020936604809112
:100D0000600481608093600408959091670480EF8F
:100D1000820F292B28239217B9F320936704EFCF72
:100D20003091670440E1249FC0011124832B229558
:100D3000207F215F8223381739F380936704DFCF48
:100D400080916804281701F320936804D8CF80911C
:100D500069042817C9F220936904D1CF80916A04ED
:100D6000281791F220936A04CACF80916B04281748
:100D700059F220936B04C3CF80916C04281721F2A1
:100D800020936C04BCCF80916D04281709F4BCCF6C
:100D900020936D04B4CF80916E04281709F4B4CF6A
:100DA00020936E04ACCF309163043F773817190657
:100DB00009F0AACF4230A1F018F4413031F0089583
:100DC0004330D1F0443049F1089580916F042817E1
:100DD00009F49ACF20936F0480916004826092CFCF
:100DE0009091700480EF820F292B2823921709F429
:100DF0008BCF20937004F0CF3091700440E1249F9A
:100E0000C0011124832B2295207F215F8223381774
:100E100009F47ACF80937004DFCF80917104281792
:100E200009F472CF20937104D7CF0F93009721F16B
:100E300060916104709162048617970729F5822FEB
:100E400090E0309164043078231729F020916004F9
:100E50002460209360040D3189F00F3779F00F3052
:100E600081F49C013695322F222737952795809162
:100E70006404822B809364040F910895409364046A
:100E8000F0CF10926404EDCF309163043F773817B0
:100E9000190691F7822F90E030916504307823177E
:100EA00029F0209160042860209360049695982F83
:100EB000882797958795482B40936504DDCF81500F
:100EC000883108F045C0E82FF0E0E759F84F0C945E
:100ED0000916810783078507870789078B078D0711
:100EE0008F07910797079B079F07A307A907AD07E0
:100EF000AF07B107B307B707BB07BD07BF07C107F8
:100F0000C307C3980895C2980895C09808951F987C
:100F100008959798089596980895959808959498A7
:100F20000895809162008B7F809362000895809184
:100F300062008D7FF9CF809162008E7FF5CF809126
:100F400062008F7EF1CF809165008E7F8093650077
:100F50000895809165008D7FF9CFA8980895A9988C
:100F60000895C598089580916500877FEFCF80919F
:100F700062008F7BD9CFDA980895DB980895AB98FB
:100F80000895C4980895809165008F7EDFCF1F93E8
:100F9000CF93DF93EC018A819B8110E0892BE9F4E8
:100FA0008D819E8110E0892B69F588818E7F8883F1
:100FB000DF91CF911F910895812F90E0880F991FA5
:100FC000EA81FB81E80FF91F0190F081E02D80811B
:100FD0008F7780830E945F071F5F8981181760F3F6
:100FE000DFCF812F90E0880F991FED81FE81E80F00
:100FF000F91F0190F081E02D80818F7780830E941E
:101000005F071F5F8C81181760F3CFCFFC019081C1
:101010009570953019F4CF010C94C7070895FC0121
:10102000208120FF03C022FF0C94C7070895815040
:10103000883108F045C0E82FF0E0EF5DF74F0C94E1
:10104000091639083B083D083F0841084308450890
:10105000470849084F08530857085B0861086508A6
:10106000670869086B086F087308750877087908BE
:101070007B08C39A0895C29A0895C09A08951F9A4A
:101080000895979A0895969A0895959A0895949A2E
:101090000895809162008460809362000895809139
:1010A00062008260F9CF809162008160F5CF80910B
:1010B00062008061F1CF809165008160809365005E
:1010C0000895809165008260F9CFA89A0895A99A41
:1010D0000895C59A0895809165008860EFCF80914A
:1010E00062008064D9CFDA9A0895DB9A0895AB9AAA
:1010F0000895C49A0895809165008061DFCF909132
:101100006004882361F090619093600481E00E9404
:10111000170880918A00887F80938A0008959F7EB7
:101120009093600481E00E945F0710928800109203
:10113000890080918A008460EFCFCF93C82F80917F
:1011400063028C1719F08C2F0E947F08C0936302F2
:10115000CC23F9F02FB7F894809147029091480280
:10116000A0914902B0914A022FBF482F392F2A2F50
:101170008B2F409364023093650220936602809324
:101180006702809163028C1749F08C2FCF910C94E9
:101190007F0840E030E020E080E0EBCFCF91089581
:1011A0000F931F93CF938C01C0E0F8018181C81782
:1011B00020F0CF911F910F9108958C2F90E0880F10
:1011C000991FD8011296ED91FC91E80FF91F01903B
:1011D000F081E02D8081982F906890838F770E9416
:1011E0001708CF5FE2CF1F93CF93DF93EC012881E5
:1011F00020FD15C022FF13C0322F3160388321FF3C
:1012000009C02A813B81232B51F0DF91CF911F919F
:101210000C94D0082D813E8110E0232BB9F4DF918E
:10122000CF911F910895812F90E0880F991FED8134
:10123000FE81E80FF91F0190F081E02D8081982F49
:10124000906890838F770E9417081F5F8C81181712
:1012500050F3E5CFCF93DF93EC018881982F927004
:10126000691789F0662369F082608883888180FF2E
:101270000AC0CE010E940608CE01DF91CF910C94E6
:10128000F3088D7FF2CFDF91CF9108951F93CF9315
:10129000DF93EC012881322F357099F4322F3160C1
:1012A000388321FF09C02A813B81232B51F0DF9134
:1012B000CF911F910C94D0082D813E8110E0232BFB
:1012C000B9F4DF91CF911F910895812F90E0880F9D
:1012D000991FED81FE81E80FF91F0190F081E02D4B
:1012E0008081982F906890838F770E9417081F5FE6
:1012F0008C81181750F3E5CFCF93DF93EC018881F1
:10130000982F9270691789F0662369F0826088834C
:10131000888180FF0AC0CE010E940F08CE01DF91B4
:10132000CF910C9446098D7FF2CFDF91CF91089534
:10133000AA9A8FE79EE30197F1F700C00000AA98F0
:1013400008950C9498091F93CF93DF93EC0180913B
:10135000600484FF0BC08FE090E00E94E315182F1B
:1013600080E190E00E94E315181306C0CE01DF91E2
:10137000CF911F910C94E315FFCF0C94A309CF9349
:10138000DF9320917702309178022F3F320721F0CE
:10139000C901DF91CF91089580917A0287FF2BC018
:1013A00086FF0FC089E090E00E94BD09C82F81E050
:1013B00090E00E94BD099C2F909378028093770261
:1013C00015C089E090E00E94BD09C82F81E090E03F
:1013D0000E94BD0990E4C99F90011124207C3170C6
:1013E0008F73282B309378022093770280917702B5
:1013F00090917802CECF85FF0CC081E190E00E94F1
:10140000BD09C82F82E190E00E94BD09C05CDD0BE0
:10141000D2CF81E090E00E94BD0990E0CDCFCF9384
:10142000863823E0920719F138F4813823E09207D7
:10143000D9F0CF910C94E315873823E09207D1F0CF
:10144000883823E09207A9F786E893E00E94E31525
:10145000C82F87E893E00E94E31590E02FEFC29F2A
:10146000800D911D1124E5CF81E893E0E2CF86E85D
:1014700093E0DFCF87E893E0DCCF0E949D08E1E6B0
:10148000F2E081E087831086EAE6F2E088E0DF019F
:101490001D928A95E9F708950F931F93CF93DF93D9
:1014A000EC01162FC63883E0D80781F150F4C1381B
:1014B00083E0D807F9F0612FCE010E94EB15CE0131
:1014C0001FC0C73883E0D80741F1C83883E0D80788
:1014D00091F786E893E00E94E315082F87E893E0F0
:1014E0000E94E315C82FD0E08FEF089FC00DD11DDB
:1014F0001124E1CF81E893E00E94EB1581E893E0AD
:10150000DF91CF911F910F910C94E31586E893E042
:101510000E94EB1586E893E0F3CF87E893E00E9402
:10152000EB1587E893E0ECCFCF93DF93D0E0C0E0FA
:10153000FE01E457FF4F6491CE010E94EB15219606
:10154000CD3281E0D807A1F761E081E893E00E9405
:10155000EB15C0E0CF5F8C2F0E941708C831D1F780
:10156000DF91CF9108950C94940A1F93CF93DF934A
:10157000209130012223C1F02FEF3FEF3093FF0184
:101580002093FE013093030220930202309307025E
:101590002093060230930B0220930A0230930F022D
:1015A00020930E021092300182309105C9F08330F1
:1015B000910509F458C020E030E0232B11F00E947F
:1015C00000008091370290913802891B990B181600
:1015D00019060CF044C085EA94E00E94C805F1CFDA
:1015E000ECEFF1E0D0E0C0E0828193810196E9F474
:1015F000CC0FDD1FCC0FDD1FC450DE4F1B821A82C3
:1016000085EA94E00E94C805888385EA94E00E94F8
:10161000C8058983E0914502F09146023097C9F4EC
:10162000D0934602C09345021AC021963496C53025
:10163000D105D1F68091370290913802891B990B20
:101640001816190664F485EA94E00E94C805F2CFE2
:10165000FC01828193810097D9F7D383C283DF9104
:10166000CF911F91089585EA94E00E94C805182F34
:1016700085EA94E00E94C805D12F90E0C92FC80FD9
:10168000D11DD0931102C093100285EA94E00E940C
:10169000C805682F80931202CE01D7FF21C09F7723
:1016A00090931102809310028830910561F0843884
:1016B00023E0920741F08C3A23E0920721F0843D29
:1016C00023E0920741F481E8683039F4DF91CF914B
:1016D0001F910C94940A0E944C0A80931202BFCF6F
:1016E0000E940F0AFACF1F93CF93DF93EC01162FBE
:1016F000089779F4662319F10E94940A80E090E03B
:10170000892BB9F0612FCE01DF91CF911F910C94FD
:10171000000080E090E0892BA9F781E0C11590E1FD
:10172000D90708F080E0111105C0DF91CF911F911A
:10173000089581E027972297C0F780E0F6CF80E0F8
:1017400090E0892BF9F681E0F0CF0F931F93CF93B0
:10175000DF93EC01162F8091600484FF25C0CF3009
:10176000D10561F48FE090E00E94EB158FE090E0EE
:10177000DF91CF911F910F910C94E3158FE090E0D2
:101780000E94E315082F80E190E00E94E315081302
:101790000AC0C730D10531F0C830D10529F418305E
:1017A00049F0FFCFFFCFFFCF612FCE010E94EB1595
:1017B000CE01DECF0E94940A88E0DF91CF911F9185
:1017C0000F9108958331910588F48131910530F4AA
:1017D0008130910519F08930910531F42FEF3FEFF9
:1017E00030937802209377020C94A50B8D319105EC
:1017F000D9F7677F60937A02209161022F73362FA9
:10180000307C232B20936102E9CFBF92CF92DF92ED
:10181000EF92FF920F931F93CF93DF938B01B42E20
:10182000690182FF23C083FF17C061E0C8010E94E5
:10183000730B8823D9F16B2DC8010E94E20B8B1129
:1018400035C0F601DF91CF911F910F91FF90EF907E
:10185000DF90CF90BF90099460E0C8010E94730BA5
:10186000882321F1C8010E94BD09E9CF842F877028
:10187000C1E0D0E07E0101C0EE0C8A95EAF7D42FDA
:10188000D870CB010E94BD09C82FB4FE1CC061E016
:10189000C8010E94730B882349F0DD2389F0CE290B
:1018A0006C2FC8010E94E20B8C1759F2DF91CF9187
:1018B0001F910F91FF90EF90DF90CF90BF90089510
:1018C000E094CE21EDCF60E0C8010E94730B882325
:1018D00069F3CE21DD2319F0C111B3CFE7CFCC23BB
:1018E00009F4AFCFE3CFAF92BF92DF92EF92FF92B6
:1018F0000F931F93CF93DF937C01162FC42FD22E0B
:10190000D42FD07E8091610287FF2CC0D03EC1F5DC
:10191000A0906202AA20A1F1B12CC5010E94BD09CC
:10192000D82FC50101960E94BD09982F8D2FE8166A
:10193000F90631F56C2F70E0762F662766277370F5
:101940006D296F5F7F4F22E536E0402F8C2FDF91AE
:10195000CF911F910F91FF90EF90DF90BF90AF90CC
:101960000C94050C80FD33C0D03609F464C090F4AB
:10197000D03209F449C0D03409F45DC0DD2381F1CF
:10198000DF91CF911F910F91FF90EF90DF90BF906B
:10199000AF900895D03A09F484C090F42C2F2F71A1
:1019A00041E0D03869F7612FC701DF91CF911F91D6
:1019B0000F91FF90EF90DF90BF90AF900C945C067A
:1019C000D03C09F475C0D03E09F4B4CFD9CF0E9401
:1019D000BF098E159F0541F2E114F10429F2D0CF21
:1019E0008C2F8E7069F680E090E0892B49F28C2F65
:1019F0008170DF91CF911F910F91FF90EF90DF9059
:101A0000BF90AF900C940000CF71CF3109F0B8CFE8
:101A10004D2D4F7761F0413061F02D2D221F22278F
:101A2000221F0DE1612FC7010E941507A9CF41E0D8
:101A3000F4CF40E0F2CF2C2F30E08C2F8F7181302B
:101A400029F030F0803121F0813109F540E001C00A
:101A500041E095E0359527959A95E1F721700DE1E4
:101A6000612FC7010E94150780E090E0892B09F4DF
:101A700087CF4C2F612FC701DF91CF911F910F911D
:101A8000FF90EF90DF90BF90AF900C940000C901E1
:101A9000880F991F8E71C4FB442740F9482B425090
:101AA000D8CF2C2F2F7043E0C4FF7DCF42E07BCFF7
:101AB000CF71CE3131F0CF3109F062CF2D2D45E01D
:101AC00072CF2D2D44E06FCF4F925F926F927F9235
:101AD0008F929F92AF92BF92CF92DF92EF92FF923E
:101AE0000F931F93CF93DF93C0913D02D0913E029D
:101AF00080912602811116C02FB7F8948091470279
:101B000090914802A0914902B0914A022FBF809360
:101B1000220290932302A0932402B093250281E035
:101B20008093260280911A02811111C00E94DD0269
:101B3000645171098109910960931602709317022B
:101B4000809318029093190281E080931A020E94F8
:101B5000DD022B013C018FB7F894C0904702D09072
:101B60004802E0904902F0904A028FBF8091220221
:101B7000BC2CB81A80911602909117029201281B72
:101B8000390BC90120911502211169C0FE0130E015
:101B900020E045815681C417D50709F056C045E0BD
:101BA000429F8001439F100D11240E5F1F4F0C0FA9
:101BB0001D1F10931402009313020115110509F45F
:101BC00058C0F801148213828431910508F496C13B
:101BD000853F914008F0B8C18D8D9E8D0E944F05C4
:101BE000F801808381E080931502409216025092A2
:101BF00017026092180270921902F6E0FB1508F4C1
:101C000081C18D8D9E8D0E944F05A0901302B090D2
:101C1000140290911502E92FE695E695E695292F95
:101C2000277041E050E060E070E004C0440F551FB1
:101C3000661F771F2A95D2F7EA0DFB2DF11D811142
:101C400029C040958081482327C02F5F3F4F35969C
:101C50002530310509F09DCF10E000E0AACF26E045
:101C60002B1508F44FC18431910518F0853F914040
:101C700040F2DF91CF911F910F91FF90EF90DF9095
:101C8000CF90BF90AF909F908F907F906F905F901C
:101C90004F9008958081482B408381E0890F809385
:101CA000150240921602509217026092180270922A
:101CB0001902982F9770E9F68031E9F4F5018081D7
:101CC000863780F4EB8DFC8D309721F4BC8EAB8E83
:101CD00007C0FC01838194810097D9F7B482A38265
:101CE00010921502C0922202D0922302E0922402A6
:101CF000F0922502BECF8831A9F7F50111811F7737
:101D00008DEF782E710EF7E2F71580F08881813023
:101D1000A1F4812E912C1B3261F118F5133049F199
:101D2000143029F1111152C0888124C085ED810F32
:101D3000883250F48881823061F3E0911302F0918F
:101D40001402D483C383CCCF8DEA810F883220F470
:101D50008881833091F7DDCF8EEF810F8230C8F616
:101D6000ECCF133531F0143511F01C3279F58AE0DF
:101D700001C08DE0F501028190819B3769F19F37A9
:101D800009F472C09737C9F60813D7CF61E08D8D7B
:101D90009E8D0E9464058D8D9E8D0E9443058FE669
:101DA00097E10197F1F700C00000AD8DBE8D14964C
:101DB000ED91FC911597808111969C91892B8083E0
:101DC00060E08D8D9E8D0E946405B7CFC4018F5752
:101DD0009C4F0E940F0ACECF202F2870302F3770D3
:101DE00004FF35C01D3278F51B3208F0A6CF91E014
:101DF000971508F0A2CF41E050E060E070E004C029
:101E0000440F551F661F771F3A95D2F7182F142BD2
:101E1000211103C0142F10951823612FC4018F576F
:101E20009C4F0E944C0A181388CF61E08D8D9E8DC7
:101E30000E9464058D8D9E8D0E944305EFE6F7E1BB
:101E40003197F1F7B0CF13551230A8F676CF90E066
:101E500002C0959587953A95E2F7817099272817E2
:101E6000190609F06ACF92CF1B32D9F190F51330E1
:101E7000C1F1143009F461CF602FC4018F579C4F1A
:101E80000E944C0A08131FC061E08D8D9E8D0E9438
:101E900064058D8D9E8D0E9443058FE697E1019725
:101EA000F1F700C00000AD8DBE8D1496ED91FC9150
:101EB0001597808111969C91892B808360E08D8D90
:101EC0009E8D0E946405111138CF043078F4088388
:101ED00034CF133531F0143509F42FCF1C3261F6AD
:101EE0002CCF083081F70E94940A9FCF61E081E8EF
:101EF00093E00E944C0A81E088831FCFF6E0FB1537
:101F000008F0B7CE99E09B1508F0B3CEC09222023C
:101F1000D0922302E0922402F09225020091130253
:101F2000109114028D8D9E8D0E944F05F8018083C3
:101F300081E080931502409216025092170260923F
:101F400018027092190295CE26E02B15D8F291CE88
:101F50009F92AF92BF92CF92DF92EF92FF920F9338
:101F60001F93CF93DF937C016B01942E81E0F701E7
:101F7000481328C0A280B380E7012196A114B104C0
:101F800031F562E070E081E090E00E9412168C0171
:101F9000009731F0FC01D182C08288818F5F8883F5
:101FA000F1E09F1242C0F70113830283DF91CF91CA
:101FB0001F910F91FF90EF90DF90CF90BF90AF9067
:101FC0009F900895A580B680E7012496D7CF888199
:101FD0008F5F8883C82FD0E062E070E0CE010E945E
:101FE00012168C0120E0AE0141505109822F90E081
:101FF0008417950764F0C150D048CC0FDD1FC00F87
:10200000D11FD982C882C5010E94CA16C9CF880FC4
:10201000991FF501E80FF91F60817181800F911FF1
:10202000FC01718360832F5FE1CFF7011683058385
:10203000BDCF1F920F920FB60F9211242F933F9393
:102040008F939F93AF93BF938091470290914802E3
:10205000A0914902B0914A0230912E0223E0230F51
:102060002D3768F126E8230F0296A11DB11D20939C
:102070002E028093470290934802A0934902B093A6
:102080004A0280912F0290913002A0913102B091CA
:1020900032020196A11DB11D80932F029093300250
:1020A000A0933102B0933202BF91AF919F918F9173
:1020B0003F912F910F900FBE0F901F901895019692
:1020C000A11DB11DD4CF1F920F920FB60F921124F4
:1020D0000BB60F922F933F934F935F936F937F9322
:1020E0008F939F93AF93BF93EF93FF93E0913F0143
:1020F000F09140010995FF91EF91BF91AF919F91B0
:102100008F917F916F915F914F913F912F910F90A0
:102110000BBE0F900FBE0F901F9018951F920F923D
:102120000FB60F9211240BB60F922F933F934F933C
:102130005F936F937F938F939F93AF93BF93EF932F
:10214000FF93E0913D01F0913E010995FF91EF91E0
:10215000BF91AF919F918F917F916F915F914F91BF
:102160003F912F910F900BBE0F900FBE0F901F90BD
:1021700018951F920F920FB60F9211240BB60F9263
:102180002F933F934F935F936F937F938F939F937F
:10219000AF93BF93EF93FF93E0913B01F0913C012C
:1021A0000995FF91EF91BF91AF919F918F917F9191
:1021B0006F915F914F913F912F910F900BBE0F90B8
:1021C0000FBE0F901F9018951F920F920FB60F928F
:1021D00011240BB60F922F933F934F935F936F93FE
:1021E0007F938F939F93AF93BF93EF93FF93E09170
:1021F0003901F0913A010995FF91EF91BF91AF91AB
:102200009F918F917F916F915F914F913F912F910E
:102210000F900BBE0F900FBE0F901F9018951F923E
:102220000F920FB60F9211240BB60F922F933F937C
:102230004F935F936F937F938F939F93AF93BF93CE
:10224000EF93FF93E0913701F09138010995FF91E9
:10225000EF91BF91AF919F918F917F916F915F911E
:102260004F913F912F910F900BBE0F900FBE0F908B
:102270001F9018951F920F920FB60F9211240BB654
:102280000F922F933F934F935F936F937F938F930F
:102290009F93AF93BF93EF93FF93E0913501F0913C
:1022A00036010995FF91EF91BF91AF919F918F9169
:1022B0007F916F915F914F913F912F910F900BBE46
:1022C0000F900FBE0F901F9018951F920F920FB690
:1022D0000F9211240BB60F922F933F934F935F935E
:1022E0006F937F938F939F93AF93BF93EF93FF93DE
:1022F000E0913301F09134010995FF91EF91BF9185
:10230000AF919F918F917F916F915F914F913F918D
:102310002F910F900BBE0F900FBE0F901F9018952E
:102320001F920F920FB60F9211240BB60F922F939C
:102330003F934F935F936F937F938F939F93AF934D
:10234000BF93EF93FF93E0913101F0913201099532
:10235000FF91EF91BF91AF919F918F917F916F917D
:102360005F914F913F912F910F900BBE0F900FBE39
:102370000F901F9018951F920F920FB60F92112475
:102380000BB60F922F933F934F935F936F937F936F
:102390008F939F93AF93BF93EF93FF9380917100BF
:1023A000887F803609F44DC008F040C0883209F4B7
:1023B000A9C028F5803109F49DC0C8F4882309F428
:1023C00007C1883009F496C0FF91EF91BF91AF919A
:1023D0009F918F917F916F915F914F913F912F913D
:1023E0000F900BBE0F900FBE0F901F901895883165
:1023F00009F488C0803241F780937E0414C0803491
:1024000009F4A5C040F48033B9F38833E9F680932A
:102410007E0485ECBCC0803509F489C0883509F498
:102420009EC0883489F60E948705CECF883909F48A
:1024300094C038F5883729F050F4883611F0803789
:1024400019F683E0809380041092FB0157C088380E
:1024500009F483C0803919F0803809F0B5CF809134
:10246000FB01803208F079C0E091FB0181E08E0F22
:102470008093FB0180917300F0E0E552FE4F808372
:102480003DC0803B39F0E0F4803A09F485C0883AD9
:1024900009F09ACF84E0809380041092DA011092C0
:1024A000D901E0913502F091360209958091D90168
:1024B00081110FC081E08093D9011092B90109C048
:1024C000803C09F4A6CF883C09F4A3CF883B09F0EF
:1024D0007BCFE091DA0181E08E0F8093DA01F0E0AA
:1024E000E754FE4F8081809373009091DA018091D0
:1024F000D90131C0809179048093730085EC809379
:10250000740062CF90917B0480917A049817B8F59B
:1025100080917C0490917D04E0917B0421E02E0F5A
:1025200020937B04E80FF92FF11D8081E5CF2091E6
:102530007C0430917D04E0917B0481E08E0F8093D8
:102540007B0480917300E20FF32FF11D8083909143
:102550007B0480917A04981788F285E8D0CF209187
:102560007C0430917D04E0917B0481E08E0F8093A8
:102570007B0480917300E20FF32FF11D8083809123
:102580007F04811150CF81E08093780484EA8093A6
:1025900074001092800418CF85EC80937400109220
:1025A00080048091FB01803230F4E091FB01F0E087
:1025B000E552FE4F10826091FB0170E0E091330222
:1025C000F09134028BED91E009951092FB01FCCE65
:1025D00010927E0428CF1F920F920FB60F921124F3
:1025E0000BB60F92EF92FF920F931F932F933F938F
:1025F0004F935F936F937F938F939F93AF93BF930B
:10260000CF93DF93EF93FF930FB6F894A89581B51E
:10261000886181BD11BC0FBE789485B78F7D85BF61
:1026200010929301C1E0D1E0D0938104C093A30440
:10263000109282041092A4040E949901811105C095
:10264000809193018F5F80939301CF5FCF3761F7C4
:102650008091910190919201009731F00E94CA16E9
:102660001092920110929101D0919301DD2371F1AA
:1026700061E070E08D2F90E00E9412167C01909333
:1026800092018093910110E0C1E001E00093810488
:10269000C093A304109282041092A4040E94990192
:1026A000811105C0F701E10FF11DC0831F5FCF5FEE
:1026B000CF3761F7D23050F080918A00887F8093C5
:1026C0008A0080917D008B7F80937D00109288002E
:1026D0001092890085B7806285BFFF91EF91DF91ED
:1026E000CF91BF91AF919F918F917F916F915F91AA
:1026F0004F913F912F911F910F91FF90EF900F906D
:102700000BBE0F900FBE0F901F9018951F920F9247
:102710000FB60F9211240BB60F922F933F934F9346
:102720005F936F937F938F939F93AF93BF93CF9359
:10273000DF93EF93FF937894C7E4D1E0E991F991A7
:10274000808187FF08C08F77209190019181921737
:1027500020F10E94170881E0C737D80779F786E98A
:1027600084BD809190018F5F8032D1F08093900181
:10277000FF91EF91DF91CF91BF91AF919F918F9199
:102780007F916F915F914F913F912F910F900BBE71
:102790000F900FBE0F901F9018950E945F07DBCF20
:1027A00010929001E5CFE5EAF4E01382128288EE00
:1027B00093E0A0E0B0E084839583A683B7838BE7A2
:1027C00091E0918380830895789483B78C6483BF6C
:1027D00087B7816087BFC2E0CEBD8EB581608EBDF8
:1027E0008FB581608FBD85B5846085BD85B58064FA
:1027F00085BD80918A00836080938A0080918B00E0
:10280000816080938B0087E886B91AB80FB6F89478
:10281000A89581B5886181BD11BC0FBE1ABA17BADF
:1028200014BA11BA12B8109261001092640061E0FB
:1028300081E00E94A10281E00E94F1011092380221
:1028400010923702109282041092A4041092800415
:1028500081E080937F041092780483E10E94F1016B
:1028600082E10E94F101809171008C7F8093710060
:1028700088E48093700085E4809374008BE692E096
:10288000909336028093350287E792E0909334026A
:1028900080933302C09372008CE08093700085EBCC
:1028A0009AE090933A028093390287E396E09093FE
:1028B0003C0280933B02BB9ABA9AB89A179A8F9AB5
:1028C0008E9A8D9A8C9A80916100846080936100C9
:1028D00080916100826080936100809161008160DD
:1028E000809361008091610080618093610080919C
:1028F00064008160809364008091640082608093B2
:102900006400A09AA19ABD9A809164008860809327
:10291000640080916100806480936100D29AD39AB0
:10292000A39ABC9A80916400806180936400A29A0B
:10293000D0E0C0E0FE01E457FF4F6491CE010E9459
:10294000EB152196CD3221E0D207A1F761E081E8B5
:1029500093E00E94EB15C0E0CF5F8C2F0E94170818
:10296000C831D1F78DE190E00E94E31580935E04B9
:102970008CE190E00E94E31580935F048DE190E08C
:102980000E94E31585FF03C181E190E00E94E315F9
:102990008F73C82FD0E0DC2FCC2782E190E00E941B
:1029A000E315C82BD0936204C093610483E190E0E7
:1029B0000E94E3158093630480E88093640480930D
:1029C000650489EBA82E81E0B82E97E4E92E91E00A
:1029D000F92E670127E0922EF50105911491C801A7
:1029E0000E94E315C82FC80101960E94E315D82F55
:1029F0000E5F1F4FC8010E94E315803228F06FE17F
:102A0000C8010E94FC158FE1D6010D911D916D0149
:102A1000F8018183D03809F4C9C0D13809F4CEC097
:102A2000D1110FC0C99DE0011124C558DD4F41E00F
:102A3000B801CE010E94A80F40E0B801CE010E946B
:102A4000A80FF2E0AF0EB11C27E7C21621E0D206B4
:102A500009F0C2CF85E190E00E94E31580FF05C038
:102A60009091820294609093820281FF05C09091C0
:102A7000890294609093890282FF05C09091900230
:102A800094609093900283FF05C0909197029460A8
:102A90009093970284FF05C090919E02946090935A
:102AA0009E0285FF05C09091A50294609093A502B7
:102AB00086FF05C09091AC0294609093AC0287FFB2
:102AC00005C08091B30284608093B30286E190E0F8
:102AD0000E94E31580FF05C090917B029460909363
:102AE0007B0282FF05C09091BA0294609093BA0273
:102AF00083FF05C09091C10294609093C10284FF4E
:102B000005C09091C80294609093C80285FF05C0EB
:102B10009091CF0294609093CF0286FF05C0909170
:102B2000D60294609093D60287FF05C08091DD02A3
:102B300084608093DD02D701ED91FD917D0180815C
:102B40008F7780830E945F07B7E7EB16B1E0FB0643
:102B500091F70EE514E0CBE7D2E0CE010E944609E2
:102B6000CE010E94F308EFEFF9E628E1E150F040D2
:102B70002040E1F700C00000CE010E940F08CE0106
:102B80000E94060827960C171D0739F7E4CF81E04D
:102B900090E00E94E315181634F063E081E090E0C5
:102BA0000E94EB1583E0C82FD0E0FCCEC99DC00188
:102BB000112440E0B80185589D4F41CFC99DC00107
:102BC000112441E0F7CFE199FECF9FBB8EBBE09A85
:102BD00099278DB30895262FE199FECF9FBB8EBB19
:102BE000E09A01970DB2021631F02DBB0FB6F894A2
:102BF000E29AE19A0FBE0895262FE199FECF9FBB7E
:102C00008EBB2DBB0FB6F894E29AE19A0FBE0196E7
:102C10000895EE0FFF1F0024001C0BBE0790F691D5
:102C2000E02D09940F931F93CF93DF93869F80012C
:102C3000879F100D969F100D1124C8010E942E161B
:102C4000EC01009729F0A80170E060E00E945317A2
:102C5000CE01DF91CF911F910F9108950F931F9394
:102C6000CF93DF938230910510F482E090E0E09101
:102C7000B304F091B40430E020E0B0E0A0E030977D
:102C800099F42115310509F44AC0281B390B243069
:102C90003105D8F58A819B816115710589F1FB01A8
:102CA00093838283FE0111C040815181028113818F
:102CB00048175907E0F04817590799F4109761F041
:102CC00012960C93129713961C933296CF01DF91B4
:102CD000CF911F910F9108950093B3041093B40402
:102CE000F4CF2115310551F04217530738F0A901EF
:102CF000DB019A01BD01DF01F801C1CFEF01F9CF7E
:102D00009093B4048093B304CDCFFE01E20FF31F80
:102D1000819391932250310939832883D7CF209111
:102D2000B1043091B204232B41F42091430130913E
:102D300044013093B2042093B104209141013091B9
:102D400042012115310541F42DB73EB740914501AF
:102D500050914601241B350BE091B104F091B2046F
:102D6000E217F307A0F42E1B3F0B2817390778F062
:102D7000AC014E5F5F4F2417350748F04E0F5F1FC1
:102D80005093B2044093B104819391939FCFF0E0AC
:102D9000E0E09CCFCF93DF930097E9F0FC013297FE
:102DA00013821282A091B304B091B404ED0130E01B
:102DB00020E01097A1F420813181820F931F209190
:102DC000B1043091B2042817390709F061C0F093BB
:102DD000B204E093B104DF91CF910895EA01CE17D8
:102DE000DF07E8F54A815B819E0141155105B1F786
:102DF000E901FB83EA8349915991C40FD51FEC1770
:102E0000FD0761F4808191810296840F951FE9018D
:102E100099838883828193819B838A83F0E0E0E0B9
:102E200012968D919C9113970097B9F52D913C9135
:102E30001197CD010296820F931F2091B10430911A
:102E4000B2042817390739F6309751F51092B404B7
:102E50001092B304B093B204A093B104BCCFD38357
:102E6000C28340815181840F951FC817D90761F42F
:102E70004E5F5F4F88819981480F591F518340836E
:102E80008A819B81938382832115310509F0B0CF1C
:102E9000F093B404E093B3049ECFFD01DC01C0CFF6
:102EA00013821282D7CFDC0101C06D934150504094
:082EB000E0F70895F894FFCF4C
:102EB80018FF17FF16FF15FF14FF13FF12FF11FF6E
:102EC80010FF0FFF0EFF0DFF0CFF0BFF0AFF09FF9E
:102ED80008FF07FF06FF05FF04FF03FF02FF01FFCE
:102EE8000142050000000000000000000000000092
:102EF800000000B50480002E012C012A01280126BB
:102F0800012401220120011E011C011A01180116C9
:102F1800011401120110010E010C010A0108010639
:102F280001040102010001000000000806DB054F52
:0A2F380006B8058005C805B90500BC
:00000001FF
