:100000000C943D010C94CD0B0C94A20B0C94770B2B
:100010000C944C0B0C94210B0C94F60A0C94CB0A08
:100020000C94A00A0C9467010C94C30D0C94670106
:100030000C9467010C9467010C9467010C946701A0
:100040000C94560A0C9467010C9467010C94670198
:100050000C9467010C9467010C9467010C94670180
:100060000C9467010C9467010C9467010C94670170
:100070000C9467010C94280D0C9467010C94670193
:100080000C9467010C94F80B0C946701400300007A
:10009000000000120D0000000000000101C08000FF
:1000A000000000000000000000060000000000004A
:1000B0000000000000000000000000000000000040
:1000C000000000000000FF1F001E000000000000F4
:1000D0000000000000000000000000000000000020
:1000E0000000000000000000000000000000000010
:1000F00000000000000000000000000002001400EA
:10010000030014000400140005001400060014008D
:100110000700140008001400090014000A00100071
:100120000B0010000C0010000D0010000E0010005D
:100130000F00100010001000110010001200140039
:100140001300140001001400010014000100140049
:100150000100140000801F0000811F00FF0000004C
:10016000FF000000FF000000FF000000FF00000093
:10017000FF000000FF000000FF000000FF00000083
:10018000FF000000FF000000FF000000FF00000073
:10019000FF000000FF000000FF0000000000000062
:1001A000000000000000000000000000000000004F
:1001B00000000000000000000000003A003700349A
:1001C00000310022006100640000003B003800356F
:1001D00000320023006200650005050505050505E0
:1001E00005020202020202020207070404040404D8
:1001F00004040407070303030303030303070101C4
:1002000001010101010106060606060606060102B5
:1002100004081020408001020408102040800810CB
:10022000010204081020408001020102040810208D
:1002300040800480402010080402010102040810DC
:100240002040800000000A0B0C00000000000001AC
:10025000040506000000000000000000000000008F
:10026000000000000000000000000000000000008E
:100270000000000000000000100E11241FBECFEF90
:10028000D0E1DEBFCDBF11E0A0E0B1E0E0EFF0E2F1
:1002900000E00BBF02C007900D92AA38B107D9F752
:1002A00022E0AAE8B1E001C01D92A439B207E1F74B
:1002B00011E0CDE3D1E004C02197FE010E94250F9B
:1002C000CC33D107C9F70E94210E0C9476100C9400
:1002D00000009091830281E0913208F043C0809148
:1002E0005F028111FCCF8091820222E020935F02A5
:1002F00021E020935E022FEF20935D0222E632E0A0
:1003000030935C0220935B0210925A029093590240
:100310001092580290915802880F892B80935802AE
:1003200080915702813029F510925702809158022E
:10033000809373008091740083FDF8CF85EC8093E7
:10034000740080915F028230E1F380915D028F3F03
:1003500091F080915D02803281F080915D02803366
:1003600071F084E010926102109283021092600298
:10037000089585EEE4CF80E0F5CF82E0F3CF83E00F
:10038000F1CF90E0FC01ED5BFD4F2491FC01E25FB9
:10039000FD4F349187529E4FFC018491882341F197
:1003A0002223C1F021502C30A8F4E22FF0E0E552D6
:1003B000FE4F0C94250F11021102EA01E701F90129
:1003C000FC01FF01EA01EA01030209020D029FB5E7
:1003D0009F779FBDE82FF0E0EE0FFF1FE753FE4F22
:1003E000A591B4918FB7F894EC913E2B3C938FBFBD
:1003F00008959FB59F7DEDCF9FB5977FEACF95B5C7
:100400009F7D95BDE7CF90918B009F7790938B0058
:10041000E1CF90918B009F7DF9CF90918B00977FDA
:10042000F5CF93B79F7D93BFD5CFE82FF0E0E35C86
:10043000FD4F8085861739F06087618B80913F0280
:10044000836080933F020895262F30E0909143020D
:100450009078691729F090913F029C6090933F0239
:100460003695322F222737952795822B809343028A
:10047000809344020895E0911B02F0911C02309792
:1004800029F0109261021092830209940895CF938B
:10049000DF93AC01E0911902F0911A023097F1F06C
:1004A00090911802809117029817C0F090E0292FC0
:1004B00030E02617370754F4D901AC56BE4F240F4D
:1004C000351FE90128812C939F5FF1CF109218020C
:1004D00060931702CB01DF91CF910994DF91CF9107
:1004E000089508958091170290911802891B990B25
:1004F000089585ED809374008091740084FDFCCF95
:1005000010925F0208952091D401260F3327331FE4
:1005100021323105ECF420915F02FC0190E080E093
:10052000243069F082E00895A091D4012191AC01BA
:100530004C545E4FA40FB52FB11D2C930196861716
:1005400098F38091D401680F6093D40180E00895FE
:1005500081E008950895E091180280911702E8174C
:1005600030F4F0E0EC56FE4F808190E008958FEF7C
:100570009FEF089590911802809117022FEF3FEF9F
:10058000981748F4E92FF0E0EC56FE4F208130E058
:100590009F5F90931802C9010895CF92DF92EF9266
:1005A000FF920F931F93CF93DF937C01CB018A01BE
:1005B00020916002222389F0EB016B01C40ED51E4D
:1005C000CC15DD0569F06991D701ED91FC910190A1
:1005D000F081E02DC7010995F3CF642F0E948302BB
:1005E000C801DF91CF911F910F91FF90EF90DF90A5
:1005F000CF900895CF93DF931F92CDB7DEB7698375
:10060000209160022223F9F020918302203258F0D9
:1006100021E030E0FC013383228390E080E00F9002
:10062000DF91CF91089580916102E82FF0E0EE59BB
:10063000FD4F998190838F5F809361028093830245
:1006400081E090E0ECCF61E0CE0101960E94830250
:10065000F7CF1F93CF93DF93CBE0D2E0188169816E
:1006600084E892E00E94FA02612F84E892E00E94FE
:10067000FA026A8184E892E0DF91CF911F910C9495
:10068000FA0290E080E0089580E090E0892B29F064
:1006900080913C0283FD0C9400000895009731F195
:1006A00060914002709141028617970709F06DC072
:1006B00041504A30D8F4E42FF0E0EF59FC4F0C944D
:1006C000250F6B037703820392039903A003A7030B
:1006D000AE03B503BD0380914502281739F020937E
:1006E000450280913F02816080933F02089590917E
:1006F000460280EF820F292B28239217B9F320930B
:100700004602EFCF3091460240E1249FC001112400
:10071000832B2295207F215F8223381739F3809322
:100720004602DFCF80914702281701F3209347024A
:10073000D8CF809148022817C9F220934802D1CF20
:1007400080914902281791F220934902CACF8091E3
:100750004A02281759F220934A02C3CF80914B02D4
:10076000281721F220934B02BCCF80914C0228170E
:1007700009F4BCCF20934C02B4CF80914D022817CE
:1007800009F4B4CF20934D02ACCF309142023F77B1
:100790003817190609F0AACF4230A1F018F44130F9
:1007A00031F008954330D1F0443049F108958091FB
:1007B0004E02281709F49ACF20934E0280913F02EF
:1007C000826092CF90914F0280EF820F292B2823D5
:1007D000921709F48BCF20934F02F0CF30914F0244
:1007E00040E1249FC0011124832B2295207F215FAB
:1007F0008223381709F47ACF80934F02DFCF80919C
:100800005002281709F472CF20935002D7CF0F93CC
:10081000009721F16091400270914102861797077D
:1008200029F5822F90E0309143023078231729F088
:1008300020913F02246020933F020D3189F00F3751
:1008400079F00F3081F49C013695322F22273795AD
:10085000279580914302822B809343020F91089544
:1008600040934302F0CF10924302EDCF3091420209
:100870003F773817190691F7822F90E030914402A4
:100880003078231729F020913F02286020933F02FF
:100890009695982F882797958795482B40934402E3
:1008A000DDCF8150883108F045C0E82FF0E0E55AEF
:1008B000FB4F0C94250F73047504770479047B04B3
:1008C0007D047F048104830489048D0491049504CC
:1008D0009B049F04A104A304A504A904AD04AF04D0
:1008E000B104B304B504C3980895C2980895C0989C
:1008F00008951F9808959798089596980895959843
:10090000089594980895809162008B7F809362008F
:100910000895809162008D7FF9CF809162008E7F73
:10092000F5CF809162008F7EF1CF809165008E7F40
:10093000809365000895809165008D7FF9CFA89818
:100940000895A9980895C598089580916500877FB6
:10095000EFCF809162008F7BD9CFDA980895DB9832
:100960000895AB980895C4980895809165008F7E8E
:10097000DFCF1F93CF93DF93EC018A819B8110E03F
:10098000892BE9F48D819E8110E0892B69F588819E
:100990008E7F8883DF91CF911F910895812F90E002
:1009A000880F991FEA81FB81E80FF91F0190F08100
:1009B000E02D80818F7780830E9451041F5F8981A1
:1009C000181760F3DFCF812F90E0880F991FED811A
:1009D000FE81E80FF91F0190F081E02D80818F7773
:1009E00080830E9451041F5F8C81181760F3CFCF62
:1009F000FC0190819570953019F4CF010C94B904E5
:100A00000895FC01208120FF03C022FF0C94B9044B
:100A100008958150883108F045C0E82FF0E0ED5E80
:100A2000FA4F0C94250F2B052D052F0531053305A5
:100A30003505370539053B054105450549054D0592
:100A40005305570559055B055D0561056505670596
:100A500069056B056D05C39A0895C29A0895C09AF9
:100A600008951F9A0895979A0895969A0895959AC9
:100A70000895949A08958091620084608093620042
:100A80000895809162008260F9CF80916200816058
:100A9000F5CF809162008061F1CF80916500816027
:100AA000809365000895809165008260F9CFA89ACF
:100AB0000895A99A0895C59A08958091650088605F
:100AC000EFCF809162008064D9CFDA9A0895DB9AE3
:100AD0000895AB9A0895C49A089580916500806145
:100AE000DFCF90913F02882361F0906190933F02A5
:100AF00081E00E94090580918A00887F80938A00A6
:100B000008959F7E90933F0281E00E9451041092CD
:100B100088001092890080918A008460EFCFCF9383
:100B2000C82F809125028C1719F08C2F0E94710517
:100B3000C0932502CC23F9F02FB7F89480911F02BF
:100B400090912002A0912102B09122022FBF482F44
:100B5000392F2A2F8B2F4093260230932702209380
:100B6000280280932902809125028C1749F08C2F4E
:100B7000CF910C94710540E030E020E080E0EBCFB5
:100B8000CF9108950F931F93CF938C01C0E0F8018C
:100B90008181C81720F0CF911F910F9108958C2F5C
:100BA00090E0880F991FD8011296ED91FC91E80F03
:100BB000F91F0190F081E02D8081982F906890833B
:100BC0008F770E940905CF5FE2CF1F93CF93DF930A
:100BD000EC012881322F357099F4322F316038833F
:100BE00021FF09C02A813B81232B51F0DF91CF9156
:100BF0001F910C94C2052D813E8110E0232BB9F486
:100C0000DF91CF911F910895812F90E0880F991F58
:100C1000ED81FE81E80FF91F0190F081E02D8081C8
:100C2000982F906890838F770E9409051F5F8C81B1
:100C3000181750F3E5CFCF93DF93EC018881982FFD
:100C40009270691789F0662369F0826088838881D1
:100C500080FF0AC0CE010E940105CE01DF91CF9135
:100C60000C94E5058D7FF2CFDF91CF9108951F930E
:100C7000CF93DF93EC01288120FD15C022FF13C024
:100C8000322F3160388321FF09C02A813B81232B19
:100C900051F0DF91CF911F910C94C2052D813E81BF
:100CA00010E0232BB9F4DF91CF911F910895812F8C
:100CB00090E0880F991FED81FE81E80FF91F0190E8
:100CC000F081E02D8081982F906890838F770E942B
:100CD00009051F5F8C81181750F3E5CFCF93DF9381
:100CE000EC018881982F9270691789F0662369F06A
:100CF00082608883888180FF0AC0CE010E94F80448
:100D0000CE01DF91CF910C9437068D7FF2CFDF912A
:100D1000CF910895AA9A8FE79EE30197F1F700C05B
:100D20000000AA9808950C948A061F93CF93DF932E
:100D3000EC0180913F0284FF0BC08FE090E00E94A5
:100D40000C0F182F80E190E00E940C0F181306C0C2
:100D5000CE01DF91CF911F910C940C0FFFCF0C941B
:100D60009506CF93DF932091390230913A022F3FBD
:100D7000320721F0C901DF91CF91089580913C02A3
:100D800087FF2BC086FF0FC089E090E00E94AF066E
:100D9000C82F81E090E00E94AF069C2F90933A020A
:100DA0008093390215C089E090E00E94AF06C82FF9
:100DB00081E090E00E94AF0690E4C99F9001112469
:100DC000207C31708F73282B30933A0220933902A4
:100DD0008091390290913A02CECF85FF0CC081E11B
:100DE00090E00E94AF06C82F82E190E00E94AF061B
:100DF000C05CDD0BD2CF81E090E00E94AF0690E0B6
:100E0000CDCFCF93863823E0920719F138F481389B
:100E100023E09207D9F0CF910C940C0F873823E090
:100E20009207D1F0883823E09207A9F786E893E08B
:100E30000E940C0FC82F87E893E00E940C0F90E0EF
:100E40002FEFC29F800D911D1124E5CF81E893E023
:100E5000E2CF86E893E0DFCF87E893E0DCCF0F9323
:100E60001F93CF93DF93EC01162FC63883E0D8078A
:100E700081F150F4C13883E0D807F9F0612FCE0139
:100E80000E94140FCE011FC0C73883E0D80741F17C
:100E9000C83883E0D80791F786E893E00E940C0FEA
:100EA000082F87E893E00E940C0FC82FD0E08FEF47
:100EB000089FC00DD11D1124E1CF81E893E00E946D
:100EC000140F81E893E0DF91CF911F910F910C9463
:100ED0000C0F86E893E00E94140F86E893E0F3CFAE
:100EE00087E893E00E94140F87E893E0ECCFCF935C
:100EF000DF93D0E0C0E0FE01E457FF4F6491CE01E4
:100F00000E94140F2196CD3281E0D807A1F761E04D
:100F100081E893E00E94140FC0E0CF5F8C2F0E9405
:100F20000905C831D1F7DF91CF9108950C94770767
:100F30001F93CF93DF93209130012223C1F02FEF35
:100F40003FEF3093FA012093F9013093FE01209393
:100F5000FD01309302022093010230930602209398
:100F6000050230930A022093090210923001823068
:100F70009105C9F08330910509F458C020E030E0B4
:100F8000232B11F00E94000080911702909118020B
:100F9000891B990B181619060CF044C084E892E0DE
:100FA0000E94BA02F1CFE7EFF1E0D0E0C0E0828129
:100FB00093810196E9F4CC0FDD1FCC0FDD1FC950E2
:100FC000DE4F1B821A8284E892E00E94BA02888374
:100FD00084E892E00E94BA028983E0911D02F091B8
:100FE0001E023097C9F4D0931E02C0931D021AC08E
:100FF00021963496C530D105D1F680911702909193
:101000001802891B990B1816190664F484E892E0FB
:101010000E94BA02F2CFFC01828193810097D9F736
:10102000D383C283DF91CF911F91089584E892E02A
:101030000E94BA02182F84E892E00E94BA02D12FCF
:1010400090E0C92FC80FD11DD0930C02C0930B02A2
:1010500084E892E00E94BA02682F80930D02CE01CC
:10106000D7FF21C09F7790930C0280930B028830AA
:10107000910561F0843823E0920741F08C3A23E037
:10108000920721F0843D23E0920741F481E8683023
:1010900039F4DF91CF911F910C9477070E942F07AD
:1010A00080930D02BFCF0E940107FACF1F93CF9309
:1010B000DF93EC01162F089779F4662319F10E944B
:1010C000770780E090E0892BB9F0612FCE01DF91A6
:1010D000CF911F910C94000080E090E0892BA9F73C
:1010E00081E0C11590E1D90708F080E0111105C039
:1010F000DF91CF911F91089581E027972297C0F744
:1011000080E0F6CF80E090E0892BF9F681E0F0CF27
:101110000F931F93CF93DF93EC01162F80913F0223
:1011200084FF25C0CF30D10561F48FE090E00E94AC
:10113000140F8FE090E0DF91CF911F910F910C94ED
:101140000C0F8FE090E00E940C0F082F80E190E0E0
:101150000E940C0F08130AC0C730D10531F0C83007
:10116000D10529F4183049F0FFCFFFCFFFCF612F11
:10117000CE010E94140FCE01DECF0E94770788E0D7
:10118000DF91CF911F910F9108950E948F05E3E2A7
:10119000F2E081E087831086ECE2F2E088E0DF0194
:1011A0001D928A95E9F708958331910588F481317C
:1011B000910530F48130910519F08930910531F4B1
:1011C0002FEF3FEF30933A02209339020C948808B6
:1011D0008D319105D9F7677F60933C0220912302FE
:1011E0002F73362F307C232B20932302E9CFBF921D
:1011F000CF92DF92EF92FF920F931F93CF93DF93E3
:101200008B01B42E690182FF23C083FF17C061E008
:10121000C8010E9456088823D9F16B2DC8010E948D
:10122000D4088B1135C0F601DF91CF911F910F913A
:10123000FF90EF90DF90CF90BF90099460E0C801DD
:101240000E945608882321F1C8010E94AF06E9CF09
:10125000842F8770C1E0D0E07E0101C0EE0C8A953A
:10126000EAF7D42FD870CB010E94AF06C82FB4FE86
:101270001CC061E0C8010E945608882349F0DD23A4
:1012800089F0CE296C2FC8010E94D4088C1759F21E
:10129000DF91CF911F910F91FF90EF90DF90CF9052
:1012A000BF900895E094CE21EDCF60E0C8010E9488
:1012B0005608882369F3CE21DD2319F0C111B3CF7D
:1012C000E7CFCC2309F4AFCFE3CFAF92BF92DF9249
:1012D000EF92FF920F931F93CF93DF937C01162F12
:1012E000C42FD22ED42FD07E8091230287FF2CC012
:1012F000D03EC1F5A0902402AA20A1F1B12CC501D5
:101300000E94AF06D82FC50101960E94AF06982F04
:101310008D2FE816F90631F56C2F70E0762F6627D1
:10132000662773706D296F5F7F4F24E433E0402F91
:101330008C2FDF91CF911F910F91FF90EF90DF9055
:10134000BF90AF900C94F70880FD33C0D03609F4FD
:1013500064C090F4D03209F449C0D03409F45DC0BF
:10136000DD2381F1DF91CF911F910F91FF90EF90DD
:10137000DF90BF90AF900895D03A09F484C090F404
:101380002C2F2F7141E0D03869F7612FC701DF9111
:10139000CF911F910F91FF90EF90DF90BF90AF9092
:1013A0000C944E03D03C09F475C0D03E09F4B4CF80
:1013B000D9CF0E94B1068E159F0541F2E114F104C8
:1013C00029F2D0CF8C2F8E7069F680E090E0892BC7
:1013D00049F28C2F8170DF91CF911F910F91FF9077
:1013E000EF90DF90BF90AF900C940000CF71CF31A1
:1013F00009F0B8CF4D2D4F7761F0413061F02D2DC0
:10140000221F2227221F0DE1612FC7010E9407041E
:10141000A9CF41E0F4CF40E0F2CF2C2F30E08C2F69
:101420008F71813029F030F0803121F0813109F560
:1014300040E001C041E095E0359527959A95E1F7A8
:1014400021700DE1612FC7010E94070480E090E048
:10145000892B09F487CF4C2F612FC701DF91CF91E2
:101460001F910F91FF90EF90DF90BF90AF900C9481
:101470000000C901880F991F8E71C4FB442740F9F1
:10148000482B4250D8CF2C2F2F7043E0C4FF7DCF84
:1014900042E07BCFCF71CE3131F0CF3109F062CF56
:1014A0002D2D45E072CF2D2D44E06FCF1F920F926E
:1014B0000FB60F9211242F933F938F939F93AF9367
:1014C000BF9380911F0290912002A0912102B091C0
:1014D00022023091120223E0230F2D3768F126E813
:1014E000230F0296A11DB11D2093120280931F02AB
:1014F00090932002A0932102B093220280910E02C9
:1015000090910F02A0911002B09111020196A11DBD
:10151000B11D80930E0290930F02A0931002B0931E
:101520001102BF91AF919F918F913F912F910F9099
:101530000FBE0F901F9018950196A11DB11DD4CF1D
:101540001F920F920FB60F9211240BB60F922F938A
:101550003F934F935F936F937F938F939F93AF933B
:10156000BF93EF93FF93E0913F01F0914001099504
:10157000FF91EF91BF91AF919F918F917F916F916B
:101580005F914F913F912F910F900BBE0F900FBE27
:101590000F901F9018951F920F920FB60F92112463
:1015A0000BB60F922F933F934F935F936F937F935D
:1015B0008F939F93AF93BF93EF93FF93E0913D0180
:1015C000F0913E010995FF91EF91BF91AF919F91ED
:1015D0008F917F916F915F914F913F912F910F90DC
:1015E0000BBE0F900FBE0F901F9018951F920F9279
:1015F0000FB60F9211240BB60F922F933F934F9378
:101600005F936F937F938F939F93AF93BF93EF936A
:10161000FF93E0913B01F0913C010995FF91EF911F
:10162000BF91AF919F918F917F916F915F914F91FA
:101630003F912F910F900BBE0F900FBE0F901F90F8
:1016400018951F920F920FB60F9211240BB60F929E
:101650002F933F934F935F936F937F938F939F93BA
:10166000AF93BF93EF93FF93E0913901F0913A016B
:101670000995FF91EF91BF91AF919F918F917F91CC
:101680006F915F914F913F912F910F900BBE0F90F3
:101690000FBE0F901F9018951F920F920FB60F92CA
:1016A00011240BB60F922F933F934F935F936F9339
:1016B0007F938F939F93AF93BF93EF93FF93E091AB
:1016C0003701F09138010995FF91EF91BF91AF91EA
:1016D0009F918F917F916F915F914F913F912F914A
:1016E0000F900BBE0F900FBE0F901F9018951F927A
:1016F0000F920FB60F9211240BB60F922F933F93B8
:101700004F935F936F937F938F939F93AF93BF9309
:10171000EF93FF93E0913501F09136010995FF9128
:10172000EF91BF91AF919F918F917F916F915F9159
:101730004F913F912F910F900BBE0F900FBE0F90C6
:101740001F9018951F920F920FB60F9211240BB68F
:101750000F922F933F934F935F936F937F938F934A
:101760009F93AF93BF93EF93FF93E0913301F09179
:1017700034010995FF91EF91BF91AF919F918F91A6
:101780007F916F915F914F913F912F910F900BBE81
:101790000F900FBE0F901F9018951F920F920FB6CB
:1017A0000F9211240BB60F922F933F934F935F9399
:1017B0006F937F938F939F93AF93BF93EF93FF9319
:1017C000E0913101F09132010995FF91EF91BF91C4
:1017D000AF919F918F917F916F915F914F913F91C9
:1017E0002F910F900BBE0F900FBE0F901F9018956A
:1017F0001F920F920FB60F9211240BB60F922F93D8
:101800003F934F935F936F937F938F939F93AF9388
:10181000BF93EF93FF9380917100887F803609F426
:101820004DC008F040C0883209F4A9C028F58031C5
:1018300009F49DC0C8F4882309F407C1883009F46D
:1018400096C0FF91EF91BF91AF919F918F917F9142
:101850006F915F914F913F912F910F900BBE0F9021
:101860000FBE0F901F901895883109F488C0803200
:1018700041F780935D0214C0803409F4A5C040F4A0
:101880008033B9F38833E9F680935D0285ECBCC000
:10189000803509F489C0883509F49EC0883489F6FA
:1018A0000E947902CECF883909F494C038F5883780
:1018B00029F050F4883611F0803719F683E08093D0
:1018C0005F021092F60157C0883809F483C080394E
:1018D00019F0803809F0B5CF8091F601803208F018
:1018E00079C0E091F60181E08E0F8093F60180913E
:1018F0007300F0E0EA52FE4F80833DC0803B39F038
:10190000E0F4803A09F485C0883A09F09ACF84E07F
:1019100080935F021092D5011092D401E0911502DC
:10192000F091160209958091D40181110FC081E0D8
:101930008093D4011092B40109C0803C09F4A6CF71
:10194000883C09F4A3CF883B09F07BCFE091D50117
:1019500081E08E0F8093D501F0E0EC54FE4F808142
:10196000809373009091D5018091D40131C0809112
:1019700058028093730085EC8093740062CF90913D
:101980005A02809159029817B8F580915B029091A4
:101990005C02E0915A0221E02E0F20935A02E80FD8
:1019A000F92FF11D8081E5CF20915B0230915C021F
:1019B000E0915A0281E08E0F80935A028091730069
:1019C000E20FF32FF11D808390915A02809159020A
:1019D000981788F285E8D0CF20915B0230915C02A5
:1019E000E0915A0281E08E0F80935A028091730039
:1019F000E20FF32FF11D808380915E02811150CFA1
:101A000081E08093570284EA8093740010925F0211
:101A100018CF85EC8093740010925F028091F601DC
:101A2000803230F4E091F601F0E0EA52FE4F10828D
:101A30006091F60170E0E0911302F091140286EDDE
:101A400091E009951092F601FCCE10925D0228CF2C
:101A50001F920F920FB60F9211240BB60F92EF92B6
:101A6000FF920F931F932F933F934F935F936F9327
:101A70007F938F939F93AF93BF93CF93DF93EF9316
:101A8000FF930FB6F894A89581B5886181BD11BC0C
:101A90000FBE789485B78F7D85BF10929301C1E00A
:101AA000D1E0D0936002C093820210926102109242
:101AB00083020E946901811105C0809193018F5FAB
:101AC00080939301CF5FCF3761F78091910190911F
:101AD0009201009731F00E94E60F1092920110924D
:101AE0009101D0919301DD2371F161E070E08D2FC0
:101AF00090E00E942E0F7C019093920180939101BF
:101B000010E0C1E001E000936002C09382021092F5
:101B10006102109283020E946901811105C0F701E0
:101B2000E10FF11DC0831F5FCF5FCF3761F7D23068
:101B300050F080918A00887F80938A0080917D0098
:101B40008B7F80937D00109288001092890085B76A
:101B5000806285BFFF91EF91DF91CF91BF91AF91EF
:101B60009F918F917F916F915F914F913F912F91B5
:101B70001F910F91FF90EF900F900BBE0F900FBE33
:101B80000F901F9018951F920F920FB60F9211246D
:101B90000BB60F922F933F934F935F936F937F9367
:101BA0008F939F93AF93BF93CF93DF93EF93FF9365
:101BB0007894C7E4D1E0E991F991808187FF08C06A
:101BC0008F77209190019181921720F10E94090551
:101BD00081E0C737D80779F786E984BD8091900105
:101BE0008F5F8032D1F080939001FF91EF91DF9170
:101BF000CF91BF91AF919F918F917F916F915F91A5
:101C00004F913F912F910F900BBE0F900FBE0F90F1
:101C10001F9018950E945104DBCF10929001E5CFE0
:101C2000E4E8F2E01382128288EE93E0A0E0B0E0F4
:101C300084839583A683B7838BE791E09183808328
:101C40000895789483B78C6483BF87B7816087BF1A
:101C500082E08EBD8EB581608EBD8FB581608FBDF7
:101C600085B5846085BD85B5806485BD80918A0019
:101C7000836080938A0080918B00816080938B00C9
:101C800087E886B91AB80FB6F894A89581B5886127
:101C900081BD11BC0FBE1ABA17BA14BA11BA12B864
:101CA0001092610010926400EFE0F2E02491EAEDFE
:101CB000F1E08491882399F090E0880F991FFC014E
:101CC000E754FE4FA591B491FC01E753FE4F859177
:101CD00094918FB7F894EC91E22BEC938FBF81E055
:101CE0000E94C10110921802109217021092610214
:101CF0001092830210925F0281E080935E02109244
:101D0000570283E10E94C10182E10E94C1018091DA
:101D100071008C7F8093710088E48093700085E46B
:101D2000809374008BE392E09093160280931502E7
:101D300087E492E0909314028093130282E08093F0
:101D400072008CE08093700088E997E090931A020B
:101D50008093190289E293E090931C0280931B0206
:101D6000BB9ABA9AB89A179A8F9A8E9A8D9A8C9A29
:101D70008091610084608093610080916100826045
:101D80008093610080916100816080936100809107
:101D90006100806180936100809164008160809324
:101DA000640080916400826080936400A09AA19A8C
:101DB000BD9A809164008860809364008091610086
:101DC000806480936100D29AD39AA39ABC9A80913E
:101DD000640080618093640007E411E0F801C19120
:101DE000D1918F018881982F906898838F770E9476
:101DF0000905FFEF29E688E1F15020408040E1F736
:101E000000C0000088818F7788830E94510491E090
:101E10000737190719F7E0CFE199FECF9FBB8EBBBB
:101E2000E09A99278DB30895262FE199FECF9FBBA5
:101E30008EBBE09A01970DB2021631F02DBB0FB6A2
:101E4000F894E29AE19A0FBE0895EE0FFF1F002466
:101E5000001C0BBE0790F691E02D09940F931F9381
:101E6000CF93DF93869F8001879F100D969F100D63
:101E70001124C8010E944A0FEC01009729F0A80123
:101E800070E060E00E946F10CE01DF91CF911F9152
:101E90000F9108950F931F93CF93DF938230910595
:101EA00010F482E090E0E0919202F091930230E031
:101EB00020E0B0E0A0E0309799F42115310509F455
:101EC0004AC0281B390B24303105D8F58A819B8103
:101ED0006115710589F1FB0193838283FE0111C0B5
:101EE000408151810281138148175907E0F048175A
:101EF000590799F4109761F012960C931297139664
:101F00001C933296CF01DF91CF911F910F910895CD
:101F10000093920210939302F4CF2115310551F0F2
:101F20004217530738F0A901DB019A01BD01DF0117
:101F3000F801C1CFEF01F9CF909393028093920201
:101F4000CDCFFE01E20FF31F81939193225031090F
:101F500039832883D7CF2091900230919102232B8F
:101F600041F4209143013091440130939102209338
:101F7000900220914101309142012115310541F437
:101F80002DB73EB74091450150914601241B350BBA
:101F9000E0919002F0919102E217F307A0F42E1B5A
:101FA0003F0B2817390778F0AC014E5F5F4F2417BD
:101FB000350748F04E0F5F1F5093910240939002F7
:101FC000819391939FCFF0E0E0E09CCFCF93DF939C
:101FD0000097E9F0FC01329713821282A0919202DD
:101FE000B0919302ED0130E020E01097A1F4208140
:101FF0003181820F931F2091900230919102281716
:10200000390709F061C0F0939102E0939002DF91EB
:10201000CF910895EA01CE17DF07E8F54A815B8189
:102020009E0141155105B1F7E901FB83EA8349910E
:102030005991C40FD51FEC17FD0761F48081918180
:102040000296840F951FE901998388838281938189
:102050009B838A83F0E0E0E012968D919C91139728
:102060000097B9F52D913C911197CD010296820F01
:10207000931F20919002309191022817390739F669
:10208000309751F51092930210929202B093910200
:10209000A0939002BCCFD383C28340815181840F2F
:1020A000951FC817D90761F44E5F5F4F88819981EA
:1020B000480F591F518340838A819B819383828378
:1020C0002115310509F0B0CFF0939302E09392020D
:1020D0009ECFFD01DC01C0CF13821282D7CFDC017D
:1020E00001C06D9341505040E0F70895F894FFCF40
:1020F00018FF17FF16FF15FF14FF13FF12FF11FF44
:1021000010FF0FFF0EFF0DFF0CFF0BFF0AFF09FF73
:1021100008FF07FF06FF05FF04FF03FF02FF01FFA3
:10212000017102000000000000000000000000003B
:10213000000000940280002E012C012A01280126B3
:10214000012401220120011E011C011A011801169F
:10215000011401120110010E010C010A010801060F
:102160000104010201000100000000FA02CD024159
:0A21700003AA027202BA02AB0200D9
:00000001FF
