:100000000C946C010C94020F0C94D70E0C94AC0E53
:100010000C94810E0C94560E0C942B0E0C94000E26
:100020000C94D50D0C948B010C942D0F0C948B011A
:100030000C948B010C948B010C948B010C948B0110
:100040000C948B0D0C948B010C948B010C948B01F4
:100050000C948B010C948B010C948B010C948B01F0
:100060000C948B010C948B010C948B010C948B01E0
:100070000C948B010C948B010C948B010C948B01D0
:100080000C948B010C948B010C948B0146030000A3
:10009000000000130D0000000000000101C08000FE
:1000A000000000000000000000060000000000004A
:1000B0000000000000000000000000000000000040
:1000C000000000000000FF1F001E000000000000F4
:1000D0000000000000000000000000000000000020
:1000E0000000000000000000000000000000000010
:1000F00000000000000000000000000002001400EA
:10010000030014000400140005001400060014008D
:100110000700140008001400090014000A00080079
:100120000B0008000C0008000D0008000E0008007D
:100130000F00080010000800110008001200140051
:100140001300140001001400010014000100140049
:100150000100140000801F0000811F00FF0000004C
:10016000FF000000FF000000FF000000FF00000093
:10017000FF000000FF000000FF000000FF00000083
:10018000FF000000FF000000FF000000FF00000073
:10019000FF000000FF000000FF0000000000000062
:1001A000000000000000000000000000000000004F
:1001B0000000000000000000000000000A0B0C001E
:1001C000000000000001040506000000000000001F
:1001D000000000000000000000000000000000001F
:1001E000000000000000000000000000000070009F
:1001F000740078007C008000840088008C009000EF
:10020000940098009C00A000A400A800AC00B000DE
:10021000B400B800BC00C000C400C800CC00D000CE
:10022000D400D800DC00E000E400E800EC00F000BE
:10023000F400F800FC000001040108010C010000BA
:100240003B003800350032002300620065000000EA
:100250003A003700340031002200610064000102DE
:10026000040810204080010204081020408008107B
:10027000010204081020408001020102040810203D
:10028000408004804020100804020101020408108C
:10029000204080000039003600330030002100206B
:1002A00000630005050505050505050202020202B9
:1002B00002020207070404040404040404070703F9
:1002C000030303030303030701010101010101010A
:1002D000060606060606060611241FBECFEFD0E16D
:1002E000DEBFCDBF11E0A0E0B1E0E4EDF4E300E05B
:1002F0000BBF02C007900D92A637B107D9F723E0D4
:10030000A6E7B1E001C01D92A33EB207E1F70E944B
:10031000860F0C94681A0C940000E82FF0E0E55466
:10032000FC4F8085861739F06087618B8091BD0313
:1003300083608093BD030895262F30E09091C10320
:100340009078691729F09091BD039C609093BD034C
:100350003695322F222737952795822B8093C1031C
:100360008093C2030895CF93DF9390E0FC01E25A9B
:10037000FD4F24918D559D4FFC0184918823C9F038
:1003800090E0880F991FFC01E25BFD4FA591B491AD
:10039000FC01E25CFD4FC591D49161110DC09FB786
:1003A000F8948C91209582238C938881282328832C
:1003B0009FBFDF91CF910895623051F49FB7F894B9
:1003C0003C91822F809583238C93E8812E2BEFCF55
:1003D0008FB7F894EC912E2B2C938FBFEACF3FB7B9
:1003E000F8948091980190919901A0919A01B0910F
:1003F0009B0122B706B600FE05C02F3F19F00196FB
:10040000A11DB11D3FBFBA2FA92F982F8827BC016E
:10041000CD01620F711D811D911D42E0660F771F96
:10042000881F991F4A95D1F70895883008F5E82F5D
:10043000F0E0EE0FFF1FE05DFE4F7183608381509F
:10044000873068F4E82FF0E0E85DFD4F0C94F61873
:1004500039024602540262026902740280028091EB
:100460006A008C7F482B40936A0089B7816089BFFE
:10047000089580916A00837F440F551F440F551FD4
:10048000482B40936A0089B78260F1CF80916A005F
:100490008F7C74E0440F551F7A95E1F7482B409309
:1004A0006A0089B78460E3CF80916A008F7366E049
:1004B000440F551F6A95E1F7482B40936A0089B7AE
:1004C0008860D5CF8AB78C7F482B4ABF89B78061B7
:1004D000CECF8AB7837F440F551F440F551F482B3B
:1004E0004ABF89B78062C3CF8AB78F7C24E0440FAC
:1004F000551F2A95E1F7482B4ABF89B78064B7CFCB
:100500008AB78F7396E0440F551F9A95E1F7482BF1
:100510004ABF89B78068ABCFFF920F931F93CF93E9
:10052000DF930E94EF0120917A0130917B01EB0172
:10053000C21BD30B2091A0013091A101C217D30798
:1005400008F461C04091A8015091A90141305105C2
:1005500061F0E091D101F091D20120813091D3017D
:10056000232330919E0123134EC070937B0160932F
:100570007A010091A2011091A3014230510509F4C2
:1005800019C14330510509F454C14130510561F49A
:1005900080917901813009F449C0D8F1833009F4A0
:1005A00086C0843009F4CFC08091A8019091A90140
:1005B000019749F1C017D10708F073C18091770105
:1005C0008F5F809377018B30F0F081E090E0909323
:1005D000A9018093A80141E050E06CE872E08091AD
:1005E000CF010E94150210929E011092790182E5BE
:1005F00090E09093A3018093A20183E290E0909316
:10060000A1018093A001DF91CF911F910F91FF90E5
:100610000895C017D10730F481E080937901C09329
:100620007801C2CF84E080937901BECFC017D10793
:10063000E0F510927901809177018F5F80937701C7
:10064000209178018C2F0C2E000C990B821B9109A4
:1006500027FD939597FF03C091958195910949973F
:1006600094F21092A9011092A80182E990E090936F
:10067000A3018093A20182E590E09093A101809371
:10068000A00110927701F0909F014F2D50E06CE88F
:1006900072E08091CF010E9415028091D30193E016
:1006A000F91229C080939E017FCF83E0BCCFC01791
:1006B000D10718F51092A9011092A80182E990E0E3
:1006C0009093A3018093A20182E590E09093A10111
:1006D0008093A00110927701F0909F014F2D50E080
:1006E0006CE872E08091CF010E9415028091D301E5
:1006F00033E0F316B9F280E0D5CF90919F019330AB
:1007000009F482E080939F0182E090E09093A90138
:100710008093A80182E990E09093A3018093A201C5
:1007200082E590E09093A1018093A0011092AE0128
:10073000809177018093AF011092AB011092AD01CF
:100740001092AC01C9CFC017D107A8F41092A9012B
:100750001092A80182E990E09093A3018093A201F6
:1007600082E590E09093A1018093A001109277011F
:100770001092AB0188CF82E090E09093A901809322
:10078000A80182E990E09093A3018093A20182E501
:1007900090E09093A1018093A0011092AE0180910E
:1007A00077018093AF011092AB011092AD011092CE
:1007B000AC0169CF9091AB019F5F9093AB018091A9
:1007C000AC01880FC017D107E0F08093AC019830DE
:1007D00009F0F0CEE091AE01E630A9F41092A90143
:1007E0001092A80182E990E09093A3018093A20166
:1007F00082E590E09093A1018093A0011092AB015B
:10080000D3CE8160E2CF83E090E09093A901809302
:10081000A8019091AC0181E08E0F8093AE01F0E0D1
:10082000E855FE4F90878091AD0189278093AD01F7
:10083000BBCEC017D10728F51092A9011092A801CC
:100840001092AB0182E990E09093A3018093A20102
:1008500082E590E09093A1018093A0018091AD0189
:100860008111ACCE88E0EEEAF1E0A6EBB1E00190B8
:100870000D928A95E1F781E08093AA0110927701A9
:1008800093CE8091AE01863009F4A8CF82E090E04B
:100890009093A9018093A8011092AB011092AC0132
:1008A00083CE10927701AFCE0895CF93DF93DC0112
:1008B000EC91F0E0EE0FFF1FED56FD4FC591D49186
:1008C000988111968C91982381E009F480E0DF9162
:1008D000CF910895DC011296ED91FC91139711963A
:1008E0009C911197808161110EC0909598239083FF
:1008F0001496ED91FC911597908111968C918095AD
:10090000892380830895982B9083089580E090E058
:10091000892B29F08091D70183FD0C940000089564
:10092000009731F16091BE037091BF03861797075E
:1009300009F06DC041504A30D8F4E42FF0E0ED5595
:10094000FB4F0C94F618AD04B904C404D404DB04C2
:10095000E204E904F004F704FF048091C3032817BC
:1009600039F02093C3038091BD0381608093BD0360
:1009700008959091C40380EF820F292B28239217AA
:10098000B9F32093C403EFCF3091C40340E1249F17
:10099000C0011124832B2295207F215F82233817E9
:1009A00039F38093C403DFCF8091C503281701F387
:1009B0002093C503D8CF8091C6032817C9F220938E
:1009C000C603D1CF8091C703281791F22093C703A4
:1009D000CACF8091C803281759F22093C803C3CF08
:1009E0008091C903281721F22093C903BCCF8091BD
:1009F000CA03281709F4BCCF2093CA03B4CF80914F
:100A0000CB03281709F4B4CF2093CB03ACCF30919C
:100A1000C0033F773817190609F0AACF4230A1F07A
:100A200018F4413031F008954330D1F0443049F1A9
:100A300008958091CC03281709F49ACF2093CC0312
:100A40008091BD03826092CF9091CD0380EF820FA1
:100A5000292B2823921709F48BCF2093CD03F0CFB5
:100A60003091CD0340E1249FC0011124832B2295B6
:100A7000207F215F8223381709F47ACF8093CD033A
:100A8000DFCF8091CE03281709F472CF2093CE03D5
:100A9000D7CF0F93009721F16091BE037091BF03F0
:100AA0008617970729F5822F90E03091C10330789F
:100AB000231729F02091BD0324602093BD030D313D
:100AC00089F00F3779F00F3081F49C013695322F81
:100AD0002227379527958091C103822B8093C103EC
:100AE0000F9108954093C103F0CF1092C103EDCF51
:100AF0003091C0033F773817190691F7822F90E0A5
:100B00003091C2033078231729F02091BD0328606B
:100B10002093BD039695982F882797958795482B06
:100B20004093C203DDCF8150883108F045C0E82FE3
:100B3000F0E0E356FA4F0C94F618B505B705B90581
:100B4000BB05BD05BF05C105C305C505CB05CF0563
:100B5000D305D705DD05E105E305E505E705EB056B
:100B6000EF05F105F305F505F705C3980895C2985B
:100B70000895C09808951F98089597980895969895
:100B800008959598089594980895809162008B7FB8
:100B9000809362000895809162008D7FF9CF8091EB
:100BA00062008E7FF5CF809162008F7EF1CF8091C1
:100BB00065008E7F809365000895809165008D7F2C
:100BC000F9CFA8980895A9980895C5980895809197
:100BD0006500877FEFCF809162008F7BD9CFDA9855
:100BE0000895DB980895AB980895C498089580916E
:100BF00065008F7EDFCF1F93CF93DF93EC018A8157
:100C00009B8110E0892BE9F48D819E8110E0892B76
:100C100069F588818E7F8883DF91CF911F91089538
:100C2000812F90E0880F991FEA81FB81E80FF91F5F
:100C30000190F081E02D80818F7780830E94930561
:100C40001F5F8981181760F3DFCF812F90E0880F35
:100C5000991FED81FE81E80FF91F0190F081E02DD1
:100C600080818F7780830E9493051F5F8C81181786
:100C700060F3CFCFFC0190819570953019F4CF01CE
:100C80000C94FB050895FC01208120FF03C022FF86
:100C90000C94FB0508958150883108F045C0E82F79
:100CA000F0E0EB5AF94F0C94F6186D066F067106DA
:100CB00073067506770679067B067D06830687062A
:100CC0008B068F06950699069B069D069F06A30632
:100CD000A706A906AB06AD06AF06C39A0895C29A49
:100CE0000895C09A08951F9A0895979A0895969A1C
:100CF0000895959A0895949A089580916200846069
:100D0000809362000895809162008260F9CF8091A3
:100D100062008160F5CF809162008061F1CF8091A7
:100D20006500816080936500089580916500826010
:100D3000F9CFA89A0895A99A0895C59A089580911F
:100D400065008860EFCF809162008064D9CFDA9A25
:100D50000895DB9A0895AB9A0895C49A08958091F6
:100D600065008061DFCF9091BD03882361F09061C1
:100D70009093BD0381E00E944B0680918A00887F9A
:100D800080938A0008959F7E9093BD0381E00E9426
:100D90009305109288001092890080918A008460E7
:100DA000EFCFCF93C82F8091C0018C1719F08C2FF3
:100DB0000E94B306C093C001CC23F9F02FB7F8947A
:100DC0008091A4019091A501A091A601B091A701E5
:100DD0002FBF482F392F2A2F8B2F4093C1013093DB
:100DE000C2012093C3018093C4018091C0018C177C
:100DF00049F08C2FCF910C94B30640E030E020E016
:100E000080E0EBCFCF9108950F931F93CF938C0188
:100E1000C0E0F8018181C81720F0CF911F910F9198
:100E200008958C2F90E0880F991FD8011296ED91AC
:100E3000FC91E80FF91F0190F081E02D8081982F3F
:100E4000906890838F770E944B06CF5FE2CF1F930D
:100E5000CF93DF93EC01288120FD15C022FF13C042
:100E6000322F3160388321FF09C02A813B81232B37
:100E700051F0DF91CF911F910C9404072D813E8199
:100E800010E0232BB9F4DF91CF911F910895812FAA
:100E900090E0880F991FED81FE81E80FF91F019006
:100EA000F081E02D8081982F906890838F770E9449
:100EB0004B061F5F8C81181750F3E5CFCF93DF935C
:100EC000EC018881982F9270691789F0662369F088
:100ED00082608883888180FF0AC0CE010E943A0622
:100EE000CE01DF91CF910C9427078D7FF2CFDF9158
:100EF000CF9108951F93CF93DF93EC012881322F78
:100F0000357099F4322F3160388321FF09C02A816E
:100F10003B81232B51F0DF91CF911F910C9404075B
:100F20002D813E8110E0232BB9F4DF91CF911F91E9
:100F30000895812F90E0880F991FED81FE81E80FC1
:100F4000F91F0190F081E02D8081982F90689083A7
:100F50008F770E944B061F5F8C81181750F3E5CFE7
:100F6000CF93DF93EC018881982F9270691789F0F5
:100F7000662369F082608883888180FF0AC0CE0181
:100F80000E944306CE01DF91CF910C947A078D7FAA
:100F9000F2CFDF91CF910895AA9A8FE79EE3019750
:100FA000F1F700C00000AA9808950C94CC071F9395
:100FB000CF93DF93EC018091BD0384FF0BC08FE0E2
:100FC00090E00E94BC18182F80E190E00E94BC18AD
:100FD000181306C0CE01DF91CF911F910C94BC185D
:100FE000FFCF0C94D707CF93DF932091D40130919A
:100FF000D5012F3F320721F0C901DF91CF9108952C
:101000008091D70187FF2BC086FF0FC089E090E059
:101010000E94F107C82F81E090E00E94F1079C2F09
:101020009093D5018093D40115C089E090E00E948F
:10103000F107C82F81E090E00E94F10790E4C99F7A
:1010400090011124207C31708F73282B3093D501AF
:101050002093D4018091D4019091D501CECF85FF0A
:101060000CC081E190E00E94F107C82F82E190E07E
:101070000E94F107C05CDD0BD2CF81E090E00E94BE
:10108000F10790E0CDCFCF93863823E0920719F196
:1010900038F4813823E09207D9F0CF910C94BC1832
:1010A000873823E09207D1F0883823E09207A9F728
:1010B00086E893E00E94BC18C82F87E893E00E945E
:1010C000BC1890E02FEFC29F800D911D1124E5CF39
:1010D00081E893E0E2CF86E893E0DFCF87E893E012
:1010E000DCCF0E94D106EEEBF1E081E08783108631
:1010F000E7ECF1E088E0DF011D928A95E9F70895B9
:101100000F931F93CF93DF93EC01162FC63883E024
:10111000D80781F150F4C13883E0D807F9F0612F86
:10112000CE010E94C418CE011FC0C73883E0D80783
:1011300041F1C83883E0D80791F786E893E00E9430
:10114000BC18082F87E893E00E94BC18C82FD0E095
:101150008FEF089FC00DD11D1124E1CF81E893E0EE
:101160000E94C41881E893E0DF91CF911F910F9105
:101170000C94BC1886E893E00E94C41886E893E0BB
:10118000F3CF87E893E00E94C41887E893E0ECCFA0
:10119000CF93DF93D0E0C0E0FE01E457FF4F6491AE
:1011A000CE010E94C4182196CD3281E0D807A1F764
:1011B00061E081E893E00E94C418C0E0CF5F8C2F0B
:1011C0000E944B06C831D1F7DF91CF9108950C945E
:1011D000C8081F93CF93DF93EC01162F089779F47B
:1011E000662319F10E94C80880E090E0892BB9F0CD
:1011F000612FCE01DF91CF911F910C94000080E010
:1012000090E0892BA9F781E0C11590E1D90708F09A
:1012100080E0111105C0DF91CF911F91089581E009
:1012200027972297C0F780E0F6CF80E090E0892BE7
:10123000F9F681E0F0CF0F931F93CF93DF93EC018A
:10124000162F8091BD0384FF25C0CF30D10561F4F6
:101250008FE090E00E94C4188FE090E0DF91CF9182
:101260001F910F910C94BC188FE090E00E94BC1865
:10127000082F80E190E00E94BC1808130AC0C73014
:10128000D10531F0C830D10529F4183049F0FFCF2D
:10129000FFCFFFCF612FCE010E94C418CE01DECF59
:1012A0000E94C80888E0DF91CF911F910F910895A7
:1012B0008331910588F48131910530F481309105B5
:1012C00019F08930910531F42FEF3FEF3093D501BC
:1012D0002093D4010C941B098D319105D9F7677FB8
:1012E0006093D7012091BE012F73362F307C232BC2
:1012F0002093BE01E9CFBF92CF92DF92EF92FF928F
:101300000F931F93CF93DF938B01B42E690182FF5C
:1013100023C083FF17C061E0C8010E94E908882349
:10132000D9F16B2DC8010E9458098B1135C0F60107
:10133000DF91CF911F910F91FF90EF90DF90CF90B1
:10134000BF90099460E0C8010E94E908882321F158
:10135000C8010E94F107E9CF842F8770C1E0D0E077
:101360007E0101C0EE0C8A95EAF7D42FD870CB012C
:101370000E94F107C82FB4FE1CC061E0C8010E94A2
:10138000E908882349F0DD2389F0CE296C2FC801B4
:101390000E9458098C1759F2DF91CF911F910F913C
:1013A000FF90EF90DF90CF90BF900895E094CE2112
:1013B000EDCF60E0C8010E94E908882369F3CE21DF
:1013C000DD2319F0C111B3CFE7CFCC2309F4AFCFA0
:1013D000E3CFAF92BF92DF92EF92FF920F931F93F2
:1013E000CF93DF937C01162FC42FD22ED42FD07E23
:1013F0008091BE0187FF2CC0D03EC1F5A090BF01F7
:10140000AA20A1F1B12CC5010E94F107D82FC50176
:1014100001960E94F107982F8D2FE816F90631F5F5
:101420006C2F70E0762F6627662773706D296F5FCB
:101430007F4F26E834E0402F8C2FDF91CF911F9112
:101440000F91FF90EF90DF90BF90AF900C947B09CD
:1014500080FD33C0D03609F464C090F4D03209F472
:1014600049C0D03409F45DC0DD2381F1DF91CF9113
:101470001F910F91FF90EF90DF90BF90AF90089574
:10148000D03A09F484C090F42C2F2F7141E0D03869
:1014900069F7612FC701DF91CF911F910F91FF90E5
:1014A000EF90DF90BF90AF900C949004D03C09F483
:1014B00075C0D03E09F4B4CFD9CF0E94F3078E1582
:1014C0009F0541F2E114F10429F2D0CF8C2F8E70E8
:1014D00069F680E090E0892B49F28C2F8170DF91D2
:1014E000CF911F910F91FF90EF90DF90BF90AF9041
:1014F0000C940000CF71CF3109F0B8CF4D2D4F774C
:1015000061F0413061F02D2D221F2227221F0DE1B5
:10151000612FC7010E944905A9CF41E0F4CF40E007
:10152000F2CF2C2F30E08C2F8F71813029F030F0EA
:10153000803121F0813109F540E001C041E095E0C2
:10154000359527959A95E1F721700DE1612FC70137
:101550000E94490580E090E0892B09F487CF4C2F49
:10156000612FC701DF91CF911F910F91FF90EF90F5
:10157000DF90BF90AF900C940000C901880F991FB5
:101580008E71C4FB442740F9482B4250D8CF2C2FF2
:101590002F7043E0C4FF7DCF42E07BCFCF71CE31CF
:1015A00031F0CF3109F062CF2D2D45E072CF2D2DD6
:1015B00044E06FCF4F925F926F927F928F929F9293
:1015C000AF92BF92CF92DF92EF92FF920F931F9351
:1015D000CF93DF93C0919C01D0919D0180918F01A9
:1015E000811116C02FB7F8948091A4019091A501A4
:1015F000A091A601B091A7012FBF80938B0190937A
:101600008C01A0938D01B0938E0181E080938F01B6
:1016100080918301811111C00E94EF016051710915
:101620008109910960937F0170938001809381010A
:101630009093820181E0809383010E94EF012B014E
:101640003C018FB7F894C090A401D090A501E09020
:10165000A601F090A7018FBF80918B01BC2CB81A16
:1016600080917F01909180019201281B390BC90163
:1016700020917E01211169C0FE0130E020E045810A
:101680005681C417D50709F056C045E0429F800136
:10169000439F100D11240E5F1F4F0C0F1D1F109341
:1016A0007D0100937C010115110509F458C0F80172
:1016B000148213828031910508F492C1853F9140D4
:1016C00008F0B4C18D8D9E8D0E945504F801808371
:1016D00081E080937E0140927F0150928001609270
:1016E000810170928201F6E0FB1508F47DC18D8DB9
:1016F0009E8D0E945504A0907C01B0907D01909138
:101700007E01E92FE695E695E695292F277041E0C1
:1017100050E060E070E004C0440F551F661F771F63
:101720002A95D2F7EA0DFB2DF11D811129C04095B4
:101730008081482327C02F5F3F4F359625303105E4
:1017400009F09DCF10E000E0AACF26E02B1508F4A9
:101750004BC18031910518F0853F914040F2DF91F7
:10176000CF911F910F91FF90EF90DF90CF90BF909E
:10177000AF909F908F907F906F905F904F90089563
:101780008081482B408381E0890F80937E014092C5
:101790007F01509280016092810170928201982FA6
:1017A0009770E9F68031E9F4F5018081873780F49C
:1017B000EB8DFC8D309721F4BC8EAB8E07C0FC0105
:1017C000838194810097D9F7B482A38210927E011D
:1017D000C0928B01D0928C01E0928D01F0928E012B
:1017E000BECF8831A9F7F50111811F778DEF782ED3
:1017F000710EF7E2F71580F088818130A1F4812E17
:10180000912C1D3220F51B3228F4112351F121E0D7
:10181000271508F18DE026C085ED810F883250F440
:101820008881823061F3E0917C01F0917D01D48365
:10183000C383CCCF8DEA810F883220F48881833036
:1018400091F7DDCF8EEF810F8230C8F6ECCF8DEAB5
:10185000810F8230F8F2C4018F579C4F0E944308D9
:1018600001C08881F501028190819B3739F19F3752
:1018700009F46CC09737B9F60813D5CF61E08D8DA8
:101880009E8D0E946A048D8D9E8D0E947A0F8FE638
:1018900097E10197F1F700C00000AD8DBE8D149661
:1018A000ED91FC911597808111969C91892B8083F5
:1018B00060E08D8D9E8D0E946A04B5CF202F287028
:1018C000302F377004FF35C01D3278F51B3208F019
:1018D000AACF91E0971508F0A6CF41E050E060E074
:1018E00070E004C0440F551F661F771F3A95D2F76A
:1018F000182F142B211103C0142F10951823612FBA
:10190000C4018F579C4F0E94800818138CCF61E050
:101910008D8D9E8D0E946A048D8D9E8D0E947A0F02
:10192000EFE6F7E13197F1F7B6CF13551230A8F68D
:101930007ACF90E002C0959587953A95E2F781704D
:1019400099272817190609F06ECF98CF1B32D9F1C5
:1019500090F51330C1F1143009F465CF602FC40144
:101960008F579C4F0E94800808131FC061E08D8D27
:101970009E8D0E946A048D8D9E8D0E947A0F8FE647
:1019800097E10197F1F700C00000AD8DBE8D149670
:10199000ED91FC911597808111969C91892B808304
:1019A00060E08D8D9E8D0E946A0411113CCF043041
:1019B00078F4088338CF133531F0143509F433CF78
:1019C0001C3261F630CF083081F70E94C8089FCFE3
:1019D00061E081E893E00E94800881E0888323CF62
:1019E000F6E0FB1508F0BBCE99E09B1508F0B7CEEA
:1019F000C0928B01D0928C01E0928D01F0928E0109
:101A000000917C0110917D018D8D9E8D0E94550469
:101A1000F801808381E080937E0140927F015092A3
:101A20008001609281017092820199CE26E02B158F
:101A3000D8F295CE9F92AF92BF92CF92DF92EF9263
:101A4000FF920F931F93CF93DF937C016B01942E32
:101A500081E0F701481328C0A280B380E7012196F6
:101A6000A114B10431F562E070E081E090E00E94E1
:101A700013198C01009731F0FC01D182C08288815A
:101A80008F5F8883F1E09F1242C0F70113830283C6
:101A9000DF91CF911F910F91FF90EF90DF90CF904A
:101AA000BF90AF909F900895A580B680E7012496DF
:101AB000D7CF88818F5F8883C82FD0E062E070E045
:101AC000CE010E9413198C0120E0AE014150510952
:101AD000822F90E08417950764F0C150D048CC0F56
:101AE000DD1FC00FD11FD982C882C5010E94CB194A
:101AF000C9CF880F991FF501E80FF91F6081718127
:101B0000800F911FFC01718360832F5FE1CFF7018C
:101B100016830583BDCF1F920F920FB60F9211242B
:101B20002F933F938F939F93AF93BF938091A40183
:101B30009091A501A091A601B091A70130919701C4
:101B400023E0230F2D3768F126E8230F0296A11D0D
:101B5000B11D209397018093A4019093A501A093B8
:101B6000A601B093A7018091980190919901A0914D
:101B70009A01B0919B010196A11DB11D809398011E
:101B800090939901A0939A01B0939B01BF91AF915B
:101B90009F918F913F912F910F900FBE0F901F90AB
:101BA00018950196A11DB11DD4CF1F920F920FB6AB
:101BB0000F9211240BB60F922F933F934F935F9385
:101BC0006F937F938F939F93AF93BF93EF93FF9305
:101BD000E0913E01F0913F010995FF91EF91BF9196
:101BE000AF919F918F917F916F915F914F913F91B5
:101BF0002F910F900BBE0F900FBE0F901F90189556
:101C00001F920F920FB60F9211240BB60F922F93C3
:101C10003F934F935F936F937F938F939F93AF9374
:101C2000BF93EF93FF93E0913C01F0913D01099543
:101C3000FF91EF91BF91AF919F918F917F916F91A4
:101C40005F914F913F912F910F900BBE0F900FBE60
:101C50000F901F9018951F920F920FB60F9211249C
:101C60000BB60F922F933F934F935F936F937F9396
:101C70008F939F93AF93BF93EF93FF93E0913A01BC
:101C8000F0913B010995FF91EF91BF91AF919F9129
:101C90008F917F916F915F914F913F912F910F9015
:101CA0000BBE0F900FBE0F901F9018951F920F92B2
:101CB0000FB60F9211240BB60F922F933F934F93B1
:101CC0005F936F937F938F939F93AF93BF93EF93A4
:101CD000FF93E0913801F09139010995FF91EF915F
:101CE000BF91AF919F918F917F916F915F914F9134
:101CF0003F912F910F900BBE0F900FBE0F901F9032
:101D000018951F920F920FB60F9211240BB60F92D7
:101D10002F933F934F935F936F937F938F939F93F3
:101D2000AF93BF93EF93FF93E0913601F0913701AA
:101D30000995FF91EF91BF91AF919F918F917F9105
:101D40006F915F914F913F912F910F900BBE0F902C
:101D50000FBE0F901F9018951F920F920FB60F9203
:101D600011240BB60F922F933F934F935F936F9372
:101D70007F938F939F93AF93BF93EF93FF93E091E4
:101D80003401F09135010995FF91EF91BF91AF9129
:101D90009F918F917F916F915F914F913F912F9183
:101DA0000F900BBE0F900FBE0F901F9018951F92B3
:101DB0000F920FB60F9211240BB60F922F933F93F1
:101DC0004F935F936F937F938F939F93AF93BF9343
:101DD000EF93FF93E0913201F09133010995FF9168
:101DE000EF91BF91AF919F918F917F916F915F9193
:101DF0004F913F912F910F900BBE0F900FBE0F9000
:101E00001F9018951F920F920FB60F9211240BB6C8
:101E10000F922F933F934F935F936F937F938F9383
:101E20009F93AF93BF93EF93FF93E0913001F091B5
:101E300031010995FF91EF91BF91AF919F918F91E2
:101E40007F916F915F914F913F912F910F900BBEBA
:101E50000F900FBE0F901F9018951F920F920FB604
:101E60000F9211240BB60F922F933F934F935F93D2
:101E70006F937F938F939F93AF93BF93CF93DF9392
:101E8000EF93FF937894C6E4D1E0E991F9918081D2
:101E900087FF08C08F77209176019181921720F1FA
:101EA0000E944B0681E0C637D80779F786E984BDE2
:101EB000809176018F5F8032D1F080937601FF911F
:101EC000EF91DF91CF91BF91AF919F918F917F91D2
:101ED0006F915F914F913F912F910F900BBE0F909B
:101EE0000FBE0F901F9018950E949305DBCF1092A4
:101EF0007601E5CFDC011496ED91FC911597908168
:101F000011968C918095892380830895CF93DF93D8
:101F100000D01F92CDB7DEB7789483B78C6483BFAF
:101F200087B7816087BF82E08EBD8EB581608EBD30
:101F30008FB581608FBD85B5846085BD85B58064B2
:101F400085BD80918A00836080938A0080918B0098
:101F5000816080938B0087E886B91AB80FB6F89431
:101F6000A89581B5886181BD11BC0FBE1ABA17BA98
:101F700014BA11BA12B8109261001092640061E0B4
:101F800081E00E94B301EAEBF1E09491EFE5F2E029
:101F90002491E4EAF2E08491882341F19923C1F08D
:101FA00091509C30A8F4E92FF0E0E752F04F0C94E8
:101FB000F6189C129C12E80FE50F841287128A1201
:101FC000E80FE80F8E12941298129FB59F779FBD6D
:101FD000E82FF0E0EE0FFF1FE25CFD4FA591B491FA
:101FE0008FB7F894EC912E2B2C938FBFA29ABB9AAB
:101FF000BA9AB89A179A8F9A8E9A8D9A8C9A8091DB
:1020000061008460809361008091610082608093B0
:102010006100809161008160809361008091610026
:10202000806180936100809164008160809364008E
:1020300080916400826080936400A09AA19ABD9A06
:102040008091640088608093640080916100806466
:1020500080936100D29AD39AA39ABC9A809164002B
:1020600080618093640014BC15BC85B5887F85BDF4
:1020700087B7806487BF85B5836085BDFEEECF2EB0
:10208000F1E0DF2EA6E4EA2EA1E0FA2EB6E7AB2EB1
:10209000B1E0BB2E17E0912EF60105911491C80115
:1020A0000E94BC188983C80101960E94BC188A83CB
:1020B0000E5F1F4FC8010E94BC18803228F06FE1EC
:1020C000C8010E94D5188FE1D7010D911D917D01A6
:1020D000F8018183FA81F03809F432C2F13809F449
:1020E00038C2F11113C03981399D90011124285251
:1020F0003E4F3B832A8341E0B801C9010E941A0D7B
:1021000040E0B8018A819B810E941A0D82E0C80ECE
:10211000D11CAE14BF0409F0BFCF85E190E00E944E
:10212000BC1880FF05C09091DF0194609093DF019F
:1021300081FF05C09091E60194609093E60182FFD3
:1021400005C09091ED0194609093ED0183FF05C06F
:102150009091F40194609093F40184FF05C09091F4
:10216000FB0194609093FB0185FF05C090910202F2
:1021700094609093020286FF05C0909109029460DA
:102180009093090287FF05C08091100284608093BC
:10219000100286E190E00E94BC1880FF05C090917B
:1021A000D80194609093D80182FF05C090911702E6
:1021B00094609093170283FF05C090911E02946073
:1021C00090931E0284FF05C0909125029460909325
:1021D000250285FF05C090912C02946090932C02FB
:1021E00086FF05C09091330294609093330287FF7D
:1021F00005C080913A02846080933A028DE190E0BC
:102200000E94BC188093BB038CE190E00E94BC1834
:102210008093BC038DE190E00E94BC1885FF9FC1B4
:1022200081E190E00E94BC188F73A82FB0E0FA2FD4
:10223000EE27FB83EA8382E190E00E94BC182A81AA
:102240003B81282B3B832A838A819B819093BF0308
:102250008093BE0383E190E00E94BC188093C0038A
:1022600080E88093C1038093C2038FE190E00E94D5
:102270002F199B838A8385E1AA81BB8111968C9358
:1022800086E090E00E942F19DC01EEE8F2E0E49194
:102290001196EC931197E3EDF2E024912C9330E04A
:1022A000220F331FF901E25BFD4F85919491139644
:1022B0009C938E931297F901E25CFD4F8591949166
:1022C00015969C938E931497EA81FB81B68FA58F08
:1022D000F093DE03E093DD0381E893E00E9443087E
:1022E000AA81BB818C93843048F061E081E893E05F
:1022F0000E94800881E0EA81FB8180832A813B8102
:1023000030939D0120939C01D90111968C918F3FB0
:10231000A1F060E00E94B301EA81FB8181819CEF22
:10232000980F943020F08251843008F08FEF42E013
:1023300050E06AED7AE00E94150260E0AA81BB815C
:102340005D968D919C910E946A042A813B81F901DE
:102350003683258333872287308B2787358B248BE1
:10236000328F218F148E138E82E08093CF0184E10F
:102370008093D001E7EBF2E0E491F0E0EE0FFF1F75
:10238000ED56FD4F859194919093D2018093D101A8
:10239000E2E7F2E0E491E093D30160E084E10E949F
:1023A000B301E8EAF1E086E1DF011D928A95E9F7E1
:1023B00082E990E09093A3018093A20182E590E0EE
:1023C0009093A1018093A0011092BE011092BF01D1
:1023D0008FEF9FEF9093D5018093D4011092D60197
:1023E00083E080939F018091D30180939E0143E01D
:1023F00050E06CE872E08091CF010E9415028DE1FF
:1024000090E00E94F107682F6F738DE190E00E94C9
:1024100058098093D70163E187E090E00E94580952
:102420006DE088E090E00E94580980E00E94710809
:1024300085B7837E85BF85B7806285BFB1E0B983EC
:1024400020E0C22E20E0D22E30E0432E30E0532E8A
:1024500040E0642E40E0742E50E0E52E50E0F52E72
:1024600060E0A62E60E0B62EE091DD03F091DE0381
:10247000FB83EA83038CF48DE02D309709F080C054
:10248000F981F13009F0C0C08091C0018823F1F0DA
:102490002FB7F8948091A4019091A501A091A60175
:1024A000B091A7012FBF4091C1015091C20160912D
:1024B000C3017091C401841B950BA60BB70B459704
:1024C000A105B10518F080E00E9471088091AA0171
:1024D000882309F499C0F89488E0E6EBF1E0A5EDD3
:1024E000B3E001900D928A95E1F71092AA017894D9
:1024F0008091D503E82FF0E0E952FC4F863008F0D8
:10250000C4C211928F5FFACF9FB59F7D60CD9FB5FA
:10251000977F5DCD95B59F7D95BD5ACD90918B00F0
:102520009F7790938B0054CD90918B009F7DF9CF36
:1025300090918B00977FF5CF93B79F7D93BF48CD48
:102540004981499DC001112440E0B80188529E4F45
:10255000DBCD5981599DC001112441E0F6CF81E0C6
:1025600090E00E94BC18181634F063E081E090E01F
:102570000E94C41883E0482F50E05B834A8364CEF6
:1025800020E030E0232B21F0618180810E94000057
:10259000AA81BB815B96ED91FC918081813409F425
:1025A000C7C108F022C18A3209F41FC208F0FBC07B
:1025B000843209F42AC188F4813209F4CEC183320D
:1025C00009F4D4C1811114C0A0E0B0E0AB2B09F430
:1025D0002CC181810E94000028C1863209F4D7C134
:1025E00008F4E6C1883209F4F0C1893209F4F6C171
:1025F00083819481AA81BB81B483A3835C969C93DD
:102600008E935B97BAE0B9838091BD0382FF20C0AF
:1026100088ED91E09B838A8315E46091C1038091EA
:10262000BB0380FF91C46095661F6627661F8A8181
:102630009B810E94B0071150AA81BB811796BB8372
:10264000AA831111EACF8091BD038B7F8093BD03D4
:102650008091BD0383FF21C0E8EDF1E0FB83EA83B5
:1026600015E46091C2038091C00387FF6FC4609539
:10267000661F6627661F8A819B810E945E07115034
:102680002A813B81295F3F4F3B832A831111E9CF88
:102690008091BD03877F8093BD038091BD0380FF40
:1026A0003EC00BEB13E028EF822E912C37E0332E47
:1026B000911067C48091C30384FF4AC488ED91E000
:1026C0000E947A078091C30380FF47C48FED91E099
:1026D0000E947A078091C30381FF44C486EE91E093
:1026E0000E947A078091C30382FF41C48DEE91E07E
:1026F0000E947A078091C30383FF3EC484EF91E078
:102700000E947A0793940F5F1F4FF8E08F0E29E025
:102710009212CECF8091BD038E7F8093BD038091B6
:10272000BD0381FF3EC00BEB13E088EF882E912C98
:1027300097E0392E9110AFC48091CC0384FF92C4EE
:1027400088ED91E00E9427078091CC0380FF8FC421
:102750008FED91E00E9427078091CC0381FF8CC40C
:1027600086EE91E00E9427078091CC0382FF89C406
:102770008DEE91E00E9427078091CC0383FF86C4F1
:1027800084EF91E00E94270793940F5F1F4FF8E0BA
:102790008F0E29E09212CECF8091BD03877F809368
:1027A000BD03889561CE8E3209F434C158F48C3261
:1027B00009F429C108F420C1E114F104B1F16181E7
:1027C00085E009C1803309F433C108F42AC181339B
:1027D00009F437C1803409F00BCFC114D10429F1B9
:1027E000618180E00E94000020C0823609F469C047
:1027F00068F5813509F4DCC088F4833409F4A6C097
:1028000008F49DC0803509F0F3CE818160E087FF38
:1028100002C061E080580E949C0107C08E3509F417
:1028200017C160F4823509F0E3CEAA81BB815B96C3
:10283000ED91FC915C9783819481DECE8036E1F14D
:10284000813609F0D5CE618181E038C0873609F440
:1028500044C058F48436D9F1B8F18536D9F18636BA
:1028600009F0C6CE618186E029C08C3609F404C126
:1028700030F4883609F0BCCE618188E01FC08D3607
:1028800079F18E3609F0B4CEA381B481109709F4A2
:1028900055C38C918F3649F64114510431F2218190
:1028A000622F661F6627661F11968C91B0E88B9F7A
:1028B000C0011124822B39C0618180E00E948D010A
:1028C000B4CF618182E0FACF618183E0F7CF61818B
:1028D00084E0F4CF618185E0F1CF618187E0EECFC4
:1028E0006181862F8F774114510409F49ECF8111A5
:1028F0001AC010E000E067FD0BC00F5F1F4F0038EB
:10290000110509F492CF60E0C8010E940000F5CFE4
:102910000F5F1F4F0038110509F487CF61E0C80130
:102920000E940000F5CF607890E00E9400007DCF0B
:10293000C114D10409F479CF618181E053CFC1146E
:10294000D10409F472CF618182E04CCFC114D1046B
:1029500009F46BCF618183E045CF20E030E0232B89
:1029600009F463CF81810E9400005FCF40E050E016
:10297000452B09F45ACF818187FD03C00E940000D6
:1029800054CF819590E0919581959109F7CF80E0A2
:1029900090E0892B09F449CF818187FD03C00E9413
:1029A000000043CF819590E0919581959109F7CFF3
:1029B0006114710409F439CF818160E087FF02C09E
:1029C00061E080580E94000030CFE114F10409F466
:1029D0002CCF618180E00E94000027CFE114F10438
:1029E00009F423CF618181E0F6CFE114F10409F409
:1029F0001CCF618182E0EFCFE114F10409F415CF1F
:102A0000618183E0E8CFE114F10409F40ECF618124
:102A100084E0E1CFE114F10409F407CF618186E09D
:102A2000DACFE114F10409F400CF618187E0D3CF5C
:102A3000A114B10409F4F9CE618181E00E94000083
:102A4000F4CEA114B10409F4F0CE618182E0F6CF96
:102A5000A381B481109709F474C28C918F3509F069
:102A6000E4CE20E030E0232B09F4DFCE11969C91D8
:102A700081810E940000D9CE40E050E0452B09F44E
:102A8000D4CE81810E940000D0CEE0E0F0E0EF2BB8
:102A900021F085ED93E00E9400008091D703811121
:102AA00017C09091D803911113C080E090E0892B5A
:102AB00019F080E00E9400008091C001882321F07D
:102AC00081E00E94D106A0CD81E00E9471089CCDDA
:102AD0009091C001992309F495C08057803108F086
:102AE0008EC081E00E94D106F091D503FA838091D7
:102AF000C701F8130AC04F2F50E069EC71E087ED71
:102B000093E00E94541A892B61F01092C60188E06C
:102B1000E5EDF3E0A7ECB1E001900D928A95E1F7C5
:102B200073CD8091C6018F5F8093C6012A812330C7
:102B300009F04CC09091D703892F87701091D8036A
:102B4000853029F41093C5010E94CC075DCD8430F7
:102B500059F1282F30E0843010F54091C50144230D
:102B6000F1F0A42FA150BB0BAA0FBB1FAA0FBB1FD4
:102B7000A20FB31F1196BB83AA8393FF1AC061E013
:102B80008A819B810E94E908882309F43DCD612F49
:102B90008A819B810E945809181336CDD5CFF9013F
:102BA0003196FB83EA83E9CF2DE130E03B832A8332
:102BB000E4CF60E08A819B810E94E908882309F4C0
:102BC00023CD8A819B810E94F107E6CF3A81343080
:102BD00009F01ACD8091D703682F70E0762F662711
:102BE000662773709091D803692B6F5F7F4F25ED37
:102BF00037E04091D9038C700E947B0905CD80E0BD
:102C00000E947108E091D703EF3F61F48091D803EF
:102C10008111FACC80E090E0892B09F4F5CC0E9478
:102C20000000F2CCE7FD0CC00091DA032091D9033B
:102C30004091D80360E08E2F90E00E94E909E4CC37
:102C4000E03C08F06BC19091BE0197FFDDCC809114
:102C5000D803282F30E0A90140955095440F551F07
:102C6000440F551F407C5170EF734E2B5B834A839A
:102C700035952795522F5370352E2091D503253049
:102C800069F58C788C3051F50E94F307AA81BB81DD
:102C90008A179B0721F0AF3FB14009F0B5CCF09106
:102CA000D8032F2F30E0522F4427442753708091B0
:102CB000D903480F511D4F5F5F4F5B834A831091CB
:102CC000DA0361E0CA010E94E908612F882309F450
:102CD0009BCC8A819B810E94580996CC8A809B80DC
:102CE00051E0851A9108880C991C880C991C83283E
:102CF00084010F5F1F4F8091D6018823F9F096FF62
:102D000041C0C80160E071E00E94E218682F81E0D4
:102D100090E00E945809C80117FF02C081509F4FE0
:102D2000692F89E090E00E94580980E090E0892BAB
:102D300019F0C8010E9400001092D6018091BE01D6
:102D400080FD3CC08091D503843009F052C0809151
:102D5000D8038978813009F057CC6091D90380E09D
:102D600090E0892B19F0C8010E94000080E090E0FB
:102D7000892B09F449CC4091D903632DC8010E94E5
:102D8000000042CC6A817B816F73772781E090E0FD
:102D90000E9458096A817B81E6E075956795EA95FE
:102DA000E1F789E090E00E94580980E090E0892BEB
:102DB00019F28A819B810E940000BECF86FF0CC061
:102DC0000E94F3078017910709F4BCCF0D3F87E0FD
:102DD00018070CF0B7CF18CC0E94F307AA81BB816B
:102DE0008A179B0709F4AECFAF3FB14009F4AACFD1
:102DF0000BCC833079F54091D803F42FF1708F2EEE
:102E000043FB992490F880E090E0892B39F04770DB
:102E1000292D6A817B81C8010E9400008091BE013A
:102E200086FF0BC080E090E0892B09F4EDCB492DA3
:102E3000682DC8010E940000E7CB80E090E0892B5C
:102E400009F4E2CB292D482D632D8A819B810E94B4
:102E50000000DACB863009F0D7CB8091D803982FC9
:102E60009978913021F08F78803809F0CDCB80911E
:102E7000BE0186FF2BC00E94F3078017910711F552
:102E80008091D90390E0382F222722273370409178
:102E9000DA03A42FA20FB32FB11D1196BB83AA830F
:102EA0001091DB0395958795959587958370992764
:102EB00082309105B1F0039709F0A6CB61E08A81D9
:102EC0009B8101CF0D3F1740DCF69ECB0E94F3079C
:102ED000EA81FB818E179F0799F2EF3FF14081F263
:102EE00093CB14FF91CB61E08A819B810E94E9081A
:102EF000882309F489CB8A819B810E94F107912F55
:102F0000977061E070E001C0660F9A95EAF713FFD1
:102F100002C0682BDECE60956823DBCEE83E08F069
:102F200073CBE05CFF0B8091D8030091DB03209111
:102F3000DA034091D90361E09E2F7FCE3AE03983D6
:102F400063CB4AE0498360CB607871CB607893CBE8
:102F500088ED91E00E944306B5CB8FED91E00E9491
:102F60004306B8CB86EE91E00E944306BBCB8DEEC4
:102F700091E00E944306BECB84EF91E00E9443069D
:102F8000C1CB882D90E00596389EA001399E500D4A
:102F900011245B834A83CA0188529E4FD801189638
:102FA0002C9120FF4AC00E947A078A819B8181521E
:102FB0009E4FF801208521FF43C00E947A078A8135
:102FC0009B818A519E4FD80118962C9122FF3BC0BD
:102FD0000E947A078A819B8183519E4FF801208548
:102FE00023FF34C00E947A078A819B818C509E4FB8
:102FF000D80118962C9124FF2CC00E947A078A8150
:103000009B8185509E4FF801208525FF25C00E9499
:103010007A078A819B818E5F9D4FD80118962C91EB
:1030200026FF1DC00E947A078A819B81875F9D4F82
:10303000F801208527FFA2CF63CB0E944306B5CFBE
:103040000E944306BCCF0E944306C4CF0E944306A1
:10305000CBCF0E944306D3CF0E944306DACF0E9413
:103060004306E2CF88ED91E00E943A066DCB8FEDEA
:1030700091E00E943A0670CB86EE91E00E943A06FB
:1030800073CB8DEE91E00E943A0676CB84EF91E00F
:103090000E943A0679CB882D90E00596389EA001D3
:1030A000399E500D11245B834A83CA0188529E4F7A
:1030B000D80151962C9120FF4AC00E9427078A818F
:1030C0009B8181529E4FF801218921FF43C00E94BC
:1030D00027078A819B818A519E4FD80151962C9156
:1030E00022FF3BC00E9427078A819B8183519E4F0C
:1030F000F801218923FF34C00E9427078A819B8120
:103100008C509E4FD80151962C9124FF2CC00E94C8
:1031100027078A819B8185509E4FF801218925FFD1
:1031200025C00E9427078A819B818E5F9D4FD80111
:1031300051962C9126FF1DC00E9427078A819B81F2
:10314000875F9D4FF801218927FFA2CF1BCB0E94EB
:103150003A06B5CF0E943A06BCCF0E943A06C4CFC9
:103160000E943A06CBCF0E943A06D3CF0E943A067D
:10317000DACF0E943A06E2CFE199FECF9FBB8EBB29
:10318000E09A99278DB30895262FE199FECF9FBB32
:103190008EBBE09A01970DB2021631F02DBB0FB62F
:1031A000F894E29AE19A0FBE0895262FE199FECF96
:1031B0009FBB8EBB2DBB0FB6F894E29AE19A0FBE6F
:1031C0000196089597FB072E16F4009407D077FD1B
:1031D00009D00E94FF1807FC05D03EF49095819518
:1031E0009F4F0895709561957F4F0895EE0FFF1FD3
:1031F0000024001C0BBE0790F691E02D0994AA1B39
:10320000BB1B51E107C0AA1FBB1FA617B70710F0D1
:10321000A61BB70B881F991F5A95A9F78095909503
:10322000BC01CD0108950F931F93CF93DF93869F29
:103230008001879F100D969F100D1124C8010E94D8
:103240002F19EC01009729F0A80170E060E00E94BE
:10325000611ACE01DF91CF911F910F9108950F93C5
:103260001F93CF93DF938230910510F482E090E0BA
:10327000E091E103F091E20330E020E0B0E0A0E073
:10328000309799F42115310509F44AC0281B390BF0
:1032900024303105D8F58A819B816115710589F14A
:1032A000FB0193838283FE0111C040815181028121
:1032B000138148175907E0F04817590799F41097F8
:1032C00061F012960C93129713961C933296CF01CD
:1032D000DF91CF911F910F9108950093E103109317
:1032E000E203F4CF2115310551F04217530738F0AE
:1032F000A901DB019A01BD01DF01F801C1CFEF0196
:10330000F9CF9093E2038093E103CDCFFE01E20F6A
:10331000F31F819391932250310939832883D7CFAA
:103320002091DF033091E003232B41F420914201EF
:10333000309143013093E0032093DF03209140015B
:10334000309141012115310541F42DB73EB740912F
:10335000440150914501241B350BE091DF03F091AE
:10336000E003E217F307A0F42E1B3F0B28173907E1
:1033700078F0AC014E5F5F4F2417350748F04E0FD1
:103380005F1F5093E0034093DF03819391939FCF9E
:10339000F0E0E0E09CCFCF93DF930097E9F0FC01F1
:1033A000329713821282A091E103B091E203ED0102
:1033B00030E020E01097A1F420813181820F931F2B
:1033C0002091DF033091E0032817390709F061C02D
:1033D000F093E003E093DF03DF91CF910895EA01DA
:1033E000CE17DF07E8F54A815B819E014115510543
:1033F000B1F7E901FB83EA8349915991C40FD51FC5
:10340000EC17FD0761F4808191810296840F951F6E
:10341000E90199838883828193819B838A83F0E089
:10342000E0E012968D919C9113970097B9F52D913C
:103430003C911197CD010296820F931F2091DF03DB
:103440003091E0032817390739F6309751F510927B
:10345000E2031092E103B093E003A093DF03BCCF3B
:10346000D383C28340815181840F951FC817D90728
:1034700061F44E5F5F4F88819981480F591F5183D6
:1034800040838A819B81938382832115310509F0D2
:10349000B0CFF093E203E093E1039ECFFD01DC01A6
:1034A000C0CF13821282D7CFFB01DC0104C08D9103
:1034B0000190801921F441505040C8F7881B990BA6
:1034C0000895DC0101C06D9341505040E0F708952C
:0434D000F894FFCF9E
:1034D40018FF17FF16FF15FF14FF13FF12FF11FF4C
:1034E40010FF0FFF0EFF0DFF0CFF0BFF0AFF09FF7C
:1034F40008FF07FF06FF05FF04FF03FF02FF01FFAC
:10350400540400000000000000000000000000005F
:103514000000E30380002E012C012A01280126016A
:103524002401220120011E011C011A0118011601A7
:103534001401120110010E010C010A010801060117
:0635440004010201000178
:00000001FF
